:100000000C9449020C94490A0C9490020C949002AE
:100010000C9490020C9490020C9490020C94900218
:100020000C9490020C9490020C9499210C946B22E5
:100030000C94F5170C9490020C9490020C9490027E
:100040000C9490020C9490020C9490020C949002E8
:100050000C9490020C9442180C9490020C94900210
:100060000C9490020C9490020C9490020C949002C8
:100070000C9490020C9490020C9490020C949002B8
:100080000C9490020C9490020C9490020C949002A8
:100090000C9490020C9490020C9490020C94900298
:1000A0000C9490020C9490020C949002970D970D72
:1000B000C90DC90D240E420E630F630F4D0EE20EE3
:1000C000F30EF30E530F630F630F5C0F0310031057
:1000D000151015100C101510151015100310031025
:1000E0001110151015101110D822FF22F723FF222E
:1000F000F7234B236E23F723C523D42329431E0064
:100100001F002000210022002B0014001A0008000C
:1001100015001700E10004001600070009000A009E
:10012000E0001D681B00060019000500000000002B
:1001300050004F00E2002C000000000051000100C0
:100140005200015123002400250026002700310021
:100150001C0018000C001200130034000B000D00EE
:100160000E000F003300E5001100100036003700CC
:10017000380001002A002800510052000000000051
:1001800001513900AA00A90000000000010001008F
:100190000100010001000100010001000100350023
:1001A0000100010001001E001F00200021002200AC
:1001B0000100010001000100010001000000000039
:1001C0000100010001000100000000004D000100DD
:1001D0004A000100010001000100010001000100CE
:1001E000010001002D002E00010001002300240069
:1001F0002500260027000100010001002F0030002B
:1002000001000100010001000100010000000000E8
:1002100001000100010001000000000029000100B0
:1002200001000100010001000100010001000100C6
:1002300001000100010001000100010001000100B6
:1002400001001D000100010001000100000000008C
:100250000100010001000100000000000100010098
:1002600001002900010001000100010001002D0032
:100270000100010001000100010001000100010076
:100280000100010001000100010001000100010066
:100290000100010001000100010001000000000058
:1002A00001000100010001000000000001003A000F
:1002B0003B003C003D003E00010001000100010048
:1002C0000100010001000100010001000100010026
:1002D0000100010001000100010001000000000018
:1002E0000100010001000100000000000100010008
:1002F000010001003F004000410042004300440073
:1003000001000100010001000100450001000100A1
:1003100001000100010001000100010001000100D5
:1003200001000100010001000100010000000000C7
:100330000100010001000100000000000403300082
:1003400000002C03440061006300740079006C001D
:100350002D004D0061006E00750066006F00720098
:100360006D002000280035007800360029000000CC
:100370000E037400730068006F00720074000000C8
:100380000403090409023B00020100A0FA09040069
:1003900000010301010009211101000122400007B1
:1003A00005810308000A0904010001030000000997
:1003B00021110100012281000705820320000A1299
:1003C00001100100000008EDFE6030010001020391
:1003D0000105010902A10185020901A10005091910
:1003E0000129051500250195057501810295017505
:1003F0000381010501093009311581257F950275B9
:1004000008810609381581257F9501750881060543
:100410000C0A38021581257F950175088106C0C038
:1004200005010980A101850319012AB700150126DC
:10043000B700950175108100C0050C0901A1018567
:100440000419012AA002150126A002950175108148
:1004500000C005010906A101050719E029E71500FB
:10046000250195087501810295017508810105072F
:10047000190029FF150026FF009506750881000563
:1004800008190129059505750191029501750391DA
:1004900001C011241FBECFEFDAE0DEBFCDBF04B62E
:1004A00003FE27C080918C0290918D02A0918E0254
:1004B000B0918F028730904BA740B04BD1F410928F
:1004C0008C0210928D0210928E0210928F0214BE36
:1004D00084B7877F84BF0FB6F894A8958091600099
:1004E000886180936000109260000FBEE0E0F8E346
:1004F000099511E0A0E0B1E0EAE3F9E402C005905B
:100500000D92A03AB107D9F722E0A0EAB1E001C00C
:100510001D92AC38B207E1F70E94C81E0C949B24D0
:100520000C9400000C9478058D31984611F080E011
:10053000089581E0089588309D4529F4FB0182816A
:1005400081110E94671481E0089581E008950C9460
:100550009B0208950C94A9021F93CF93DF9300D0C0
:1005600000D01F92CDB7DEB749835A836B83309199
:10057000C50189819A81311114C0662359F0222363
:1005800049F00E947815182F682F89819A810E945E
:100590001F1503C00E944B15182F69817A81812F86
:1005A00004C00E94781569817A810F900F900F9096
:1005B0000F900F90DF91CF911F910C945E03FC017F
:1005C000262F408151816281738184810C94AC0219
:1005D000CF93DF93EC0160E00E94DF02BE01DF9168
:1005E000CF910C94AA020E94AA16811102C00E9407
:1005F0004A170C9492020C94760508950C94FD020F
:1006000081E008950C940003CF93C82F0E94FE024E
:100610008C2F0E940203CF91089508950E94F10F3C
:100620000E940D032FEF84E39CE021508040904016
:10063000E1F700C000000C9468180F931F93CF934C
:10064000DF93EC0161E00E94DF028C01BE010E9499
:10065000A702882349F1BE01C8010E94030888232C
:1006600019F1BE01C8010E9444088823E9F0BE01C7
:10067000C8010E946F098823B9F08A81882369F034
:1006800001158CE5180731F00E3D1C4531F40E9430
:100690004A170AC00E940E0307C0CE01DF91CF9116
:1006A0001F910F910C94A50280E0DF91CF911F91D3
:1006B0000F91089580E090E00895089528E4829FC6
:1006C000C0011124FC0126E0729FE00DF11D1124F0
:1006D000E60FF11DEE0FFF1FE450FF4F859194913F
:1006E0000895880F991FFC01E45CFC4F859194915B
:1006F0000895CF93DF930E945E030E949104EC0162
:100700008115904508F041C0C11580E4D80708F074
:10071000D1C0C83ED10510F5C03ED10508F0FDC0DE
:10072000C83AD10578F4C53AD10508F0A2C0C13065
:10073000D10509F4F2C008F4EEC0C430D10508F0C8
:10074000ECC0E9C0CF3BD10508F49BC0C03CD1054B
:1007500008F4E1C0CE01805C91099EC0C11590E211
:10076000D90758F4C11521E0D20708F0D6C0C03F20
:10077000D10508F4D0C0D065D0C0C11580E3D8073A
:1007800008F08EC0CE019F7087C0C11595E5D907CE
:1007900008F043C0C11524E5D20708F0A2C0C11576
:1007A00082E5D80708F5C11591E5D90708F085C09D
:1007B000CE0174E0969587957A95E1F783709C2F2A
:1007C000937021E030E002C0220F331F9A95E2F7C8
:1007D0003C68382BCF70C695C69580E2C89FE00173
:1007E0001124C22BD32B99C09E01237033278C2F49
:1007F00086958695C115D34508F064C0C1E0D0E068
:1008000002C0CC0FDD1F2A95E2F720E2829FC001D3
:100810001124C82BD92BDC6880C0C11529E5D2076B
:10082000A0F4C11588E5D80708F060C0C11596E5A9
:10083000D90708F070C08C2F0E9425058F71C82F32
:10084000D0E0DC2FCC27D06268C0C1152AE5D207E2
:1008500008F451C0CE0190568115904208F05BC05B
:100860008D2F8F710E942505DD27D0628F71D82BC7
:1008700054C0C55AD0E0CE59DE4FC881D0E0D06414
:100880004CC0C85AD0E0CC0FDD1FCC5CDE4F0990C5
:10089000D881C02DD46441C00E947103EC013DC0D9
:1008A000CE019927D3FF03C0EC01D86C36C0EC0110
:1008B000D06C33C0DF70D06A30C0DC2FCC27C16F62
:1008C000D06A2BC0C1E0D0E002C0CC0FDD1F2A955A
:1008D000E2F720E2829FC0011124C82BD92BDA68ED
:1008E0001CC0DC2FCC27C46FD06A17C0DC2FCC27EC
:1008F000C06FD06A12C08C2F8F700E94250594E0C3
:10090000D695C7959A95E1F7CF70D0E0DC2FCC272C
:10091000D069C82B02C0C0E0D0E0CE01DF91CF91FA
:1009200008958238910569F1B0F48133910509F495
:100930006DC048F48932910509F463C08A3291058B
:1009400009F469C008958533910509F455C08933C8
:100950009105B9F00895833E910569F138F4803E20
:100960009105B1F0823E910509F10895863E910509
:10097000A9F1873E9105B9F1843E910509F064C063
:1009800023C020917D0220FD4FC021FD4DC0089560
:1009900080917D0280FD44C080917E0280FF44C032
:1009A00080917D0284FD42C083EE4DC080917D0226
:1009B00082FF38C0F5CF80917D0282FD33C08091E7
:1009C0007E0280FD31C0ECCF80917E0281FF32C07B
:1009D00080917D0284FD2AC087EE35C080917D0222
:1009E00083FF26C0F5CF80917D0283FD21C08091D9
:1009F0007E0281FD1FC0ECCF80917D0285FD1CC071
:100A00001DC080917D0285FD19C016C080917D02B8
:100A100086FD16C017C080917D0286FD13C010C0F0
:100A200089E311C082EE0FC080EE0DC080E00BC0E4
:100A300086EE09C084EE07C089E205C085E303C0E5
:100A40008AE201C081E390E0089590917D0292FFD7
:100A50000DC0282F2871283019F4877F846006C0C4
:100A6000282F2471243011F48B7F886093FF0DC0F0
:100A7000282F2871283119F4877E846106C0282F19
:100A80002471243111F48B7E886120917E0220FF35
:100A90000DC0382F3871383019F4877F816006C057
:100AA000382F3171313011F48E7F886021FF0DC0F5
:100AB000282F2871283119F4877E816106C0282FDC
:100AC0002171213111F48E7E886194FD877E089515
:100AD000E82FF0E0E559FD4F80810895089580EA00
:100AE0008A95F1F7089508950C9473050C94740594
:100AF0000C94730508950F931F93CF93DF93CDB795
:100B0000DEB762970FB6F894DEBF0FBECDBF0E946E
:100B100048078091120181112FC0FE0131968CE0AF
:100B2000DF011D928A95E9F786EF898387EF8A8333
:100B300081E38B8383E38C8382E38D8386E38E83DF
:100B4000A6E0B1E0CE010D9621912D938E179F075F
:100B5000D9F726E0EEE2F1E0DE011D9601900D925C
:100B60002A95E1F7FC01A0E0B1E0CE014396219186
:100B70002D938E179F07D9F780911201811102C022
:100B800096E001C090E09093780286E0891B809304
:100B90007702A6E0B1E04CE051E061E070E08D91B9
:100BA000E82FE295EF70F0E021A18F708B0102C079
:100BB000000F111F8A95E2F7C801902F909592239C
:100BC00091A392A1892B82A34A175B0741F7A0E06A
:100BD000B1E046E051E061E070E08D91E82FE295F0
:100BE000EF70F0E021A18F708B0102C0000F111F88
:100BF0008A95E2F7C801902F9095922391A392A134
:100C0000892B82A34A175B0741F7EFE5F2E0ABE6D9
:100C1000B2E08BE692E011921D928E179F07D9F7F2
:100C200086E00E94F2060E94F30262960FB6F894E4
:100C3000DEBF0FBECDBFDF91CF911F910F910C94FE
:100C400052070E942907882309F18091770290E0DA
:100C500085599D4F0E946507811114C08091A001A4
:100C60008F5F8093A001863078F0E0917702F0E00A
:100C7000E559FD4F80E090E0119201968630910594
:100C8000D9F702C01092A0010C94FB028091780267
:100C900090E085599D4F0E9480070C947A05BF9281
:100CA000CF92DF92EF92FF920F931F93CF93DF9338
:100CB000C6E0D1E08FE5C82E82E0D82E9CE0E92E78
:100CC00091E0F92EB12C01E010E08881E82FE29547
:100CD000EF70F0E021A18F70A80102C0440F551FF2
:100CE0008A95E2F7CA01822B81A38881E82FE295D9
:100CF000EF70F0E092A18F70980101C0220F8A95E9
:100D0000EAF7822F8095892382A30E946F05E0E095
:100D1000F1E040E050E020E03191A32FA295AF70C8
:100D2000B0E090968C9190E03F7002C095958795C9
:100D30003A95E2F780FD07C0802F042E01C0880F8E
:100D40000A94EAF701C080E0282B4F5F5F4F4630DE
:100D5000510511F78881E82FE295EF70F0E091A13D
:100D60008F70A80101C0440F8A95EAF7842F8095FF
:100D7000892381A38991E82FE295EF70F0E032A1F9
:100D80008F70A80102C0440F551F8A95E2F7CA016F
:100D9000832B82A3F6018081281719F0208381E03C
:100DA00001C080E0B82AFFEFCF1ADF0AEC16FD067B
:100DB00009F08BCF6091780270E065597D4F2B2D43
:100DC00046E08FE592E00E94F3060E9421068B2DFB
:100DD000DF91CF911F910F91FF90EF90DF90CF9017
:100DE000BF9008950895FF920F931F93CF93DF93C1
:100DF0008C01F62ED72FC42F222349F081E0809357
:100E0000A3010E9427189093A2018093A1018091D1
:100E1000A3018823C1F08091A1019091A2010E94B9
:100E20003318069780F0EF2DFD2FD8014C2F50E09E
:100E3000CD01801B910B841795071CF48D91819334
:100E4000F7CF1092A301DF91CF911F910F91FF90E7
:100E500008958091A401811112C08091D800806111
:100E60008093D8008AE18A95F1F700C08091D9007B
:100E700080FD02C082E001C081E08093A40181E096
:100E80009091A401913009F080E008950C94290715
:100E90000E944607809312010E94290781110C9439
:100EA000590708950E942907811102C00C945F0719
:100EB000089561E070E083E191E00C94FB0961E04A
:100EC00070E083E191E00C94020ACF93DF93D82F76
:100ED000C92F0E949A0A892B79F4ED2FFC2F80E00C
:100EE00090E0DC01AA55BE4F2C91219301968630EB
:100EF0009105B9F781E001C080E0DF91CF910895BD
:100F000020E030E0FC014191CF01F901EA55FE4FAC
:100F100040832F5F3F4F26303105A1F708950F938F
:100F20001F93CF93DF93C62FD42F122FFC01828102
:100F30008823C9F06093AE010E9427189093AD01F9
:100F40008093AC0180E28C0F883008F057C0C770E6
:100F500081E001C0880FCA95EAF7DF91CF911F9118
:100F60000F910C94530D8091AE01681330C08091A5
:100F7000AC019091AD010E943318883C910538F581
:100F800000E20D0FCD17B9F080E28C0F883040F4ED
:100F9000C77081E001C0880FCA95EAF70E945A0D18
:100FA000083028F581E09D2F977001C0880F9A9531
:100FB000EAF70E94530D812F0E94400D0830F0F493
:100FC000D77081E001C0880FDA95EAF70AC080E2A5
:100FD0008C0F883098F4C77081E001C0880FCA95E3
:100FE000EAF7DF91CF911F910F910C945A0D812F49
:100FF000DF91CF911F910F910C94400DDF91CF9114
:101000001F910F9108959C01CB01233F4CE53407BC
:10101000F9F078F4283DFCE53F07B9F0293D4CE5AF
:10102000340711F1273D3C4531F526E241EE61EEF2
:101030001EC0253FFCE53F0799F070F0263F3C4578
:10104000D1F427E245EE66EE12C027E245EE0EC06F
:1010500026E241EE60EE0BC027E245EE64EE07C0EB
:1010600026E241EE62EE03C028E241E065EE0E9416
:101070008F0780E00895FC018281882319F0109287
:10108000AE01089581E00895CF93DF93EC01FB0159
:101090008281882309F41FC1C230FCE5DF0708F410
:1010A0001BC1C6319CE5D90738F09E012A5F3C453B
:1010B0002930310508F010C10E94BD1690937E02C0
:1010C00080937D02C031ECE5DE0709F4C3C008F06F
:1010D00041C0C8308CE5D80709F49AC0F0F4C43098
:1010E000ECE5DE0709F487C068F4C2308CE5D80768
:1010F00009F477C0C330DC4509F0E3C080917D027C
:10110000826076C0C630ECE5DE0709F46EC008F0F8
:101110007BC080917D0288606BC0CC308CE5D807A5
:1011200009F485C068F4CA30ECE5DE0709F474C040
:1011300008F079C00E94F10F80917D02806858C04C
:10114000CE308CE5D80709F476C008F07FC08091D6
:101150007D028BC0CB3FECE5DE0709F44FC018F5EC
:10116000C3318CE5D80709F47DC078F4C131ECE5D2
:10117000DE0709F473C0C231DC4509F0A2C00E9449
:10118000F10F80917D028F7733C0C5318CE5D80790
:1011900009F472C008F486C0CA3FDC4509F091C06A
:1011A00080917E023EC0CF3FFCE5DF0709F45FC0BF
:1011B00058F4CD3F9CE5D90709F444C008F43FC07A
:1011C00080917E0282602DC0C130FDE5DF0709F409
:1011D00075C008F45DC0C230DD4509F072C080E022
:1011E0006EC080917D02816003C080917D0280612C
:1011F00080937D0266C080917D0211C080917E0245
:10120000826080937E025DC080917D028062F0CF1B
:1012100080917D028064ECCF80917D028860846043
:10122000E7CF8160EECF80917D028E7FE1CF80910C
:101230007D028D7FDDCF80917D02877FD9CF809128
:101240007E0218C080917E028D7FDBCF80917D026F
:101250008F7ECECF80917D028F7DCACF80917D021F
:101260008F7BC6CF80917D02877F8B7FC1CF80919E
:101270007E028D7F8E7FC5CF80917D0282FB2227EB
:1012800020F991E0922790FB82F990FB83F9B0CF8F
:1012900080917E02982F909591708E7F892B90FB84
:1012A00081F9AFCF0E94F10F80917D0287FB222749
:1012B00020F991E0922790FB87F99ACF81E00E9474
:1012C0004C1780917D0290917E020E94CE160E9462
:1012D000F10F80E001C081E0DF91CF910895CF93BD
:1012E000DF9386319C4541F5EB010E94F915982F5B
:1012F0008A8120911B0130911C01882379F09A7A10
:1013000081E009F480E08093AF01911102C069E2AD
:1013100001C065E3C9010E9493170AC08091AF0123
:10132000811102C069E201C065E3C9010E949517FD
:101330000E94471680E001C081E0DF91CF910895BF
:101340008EE1489B02C08150E1F7489BFECF089593
:10135000589880E28A95F1F7589A0895FC012AE09E
:101360002A95F1F728E090E080E031E040E14A95ED
:10137000F1F7880F489B02C08160932700C00000EE
:1013800040E14A95F1F7215089F720E12A95F1F7DC
:1013900029B100C0000030E13A95F1F721709227A1
:1013A0002081920F90830895EF92FF920F931F93E5
:1013B000CF93DF931F92CDB7DEB719828C017C01EA
:1013C000E60EF11C0E151F0551F00E94A009CE017A
:1013D00001960E94AE09F80181938F01F3CF81E05D
:1013E0009981911180E00F90DF91CF911F910F9122
:1013F000FF90EF9008959093B1018093B001509ABF
:10140000589A08959093B1018093B0015098589ADA
:10141000E89AE9E6F0E080818C7F8083089561504E
:1014200091E001C0990F6A95EAF720E031E0992335
:1014300061F0492F482319F0589A232701C0589882
:1014400040E24A95F1F79695F2CF222311F0589A8F
:1014500001C0589880E28A95F1F758980895FF9254
:101460000F931F93CF93DF93EC018C01060F111D97
:10147000C017D10741F0F9900E94A80968E08F2DAC
:101480000E940F0AF5CFDF91CF911F910F91FF902E
:1014900008951F920F920FB60F9211242F933F932E
:1014A0004F935F936F937F938F939F93AF93BF936C
:1014B000CF93DF93EF93FF935898509AC091B00168
:1014C000D091B1016D81662321F08E819F810E94B0
:1014D0002F0A0E94A80980E18A95F1F75898509840
:1014E000589A80E18A95F1F76A81662351F08B81E1
:1014F0009C810E94D409E881F981811104C082E0B5
:1015000003C0E881F98188E080830E94A009FF91EF
:10151000EF91DF91CF91BF91AF919F918F917F918B
:101520006F915F914F913F912F910F900FBE0F9050
:101530001F901895CF93DF93C091B001D091B10166
:10154000F894509A589885E08A95F1F700005098E1
:10155000589A80E28A95F1F7489B0AC0509A589AA7
:10156000E881F98181E08083789481E090E02CC06B
:101570006D81662381F08E819F810E94D409811143
:101580000AC0509A589AE881F98182E08083789461
:1015900082E090E019C00E94A00980E28A95F1F7EC
:1015A0005898509A80E18A95F1F76A81662321F074
:1015B0008B819C810E942F0A0E94A809E881F981F1
:1015C0001082789480E090E0DF91CF91089590931D
:1015D000B7018093B6010895E091B601F091B7018B
:1015E000309721F00190F081E02D099480E008957A
:1015F000E091B601F091B701309721F00280F381BC
:10160000E02D09940895E091B601F091B70130976B
:1016100039F022E0DC012C930480F581E02D09945F
:1016200008952091B4013091B5012817390771F060
:101630009093B5018093B401E091B601F091B701A8
:10164000309721F00680F781E02D099408952091CC
:10165000B2013091B3012817390771F09093B301AB
:101660008093B201E091B601F091B701309721F07B
:101670000084F185E02D0994089585B7806885BFC1
:1016800085B7806885BF089508950C94440B0C9429
:10169000450B0C94440B0C94440B0E943D0B0E9490
:1016A000490B0C94470B0C9429070E941E180E94AA
:1016B0007B050E9479180C944B0BAF92BF92CF928E
:1016C000DF92EF92FF920F931F93CF93DF93CDB7EB
:1016D000DEB72A970FB6F894DEBF0FBECDBF0E94CB
:1016E0004F060E94530B811111C08FEF89838A83AB
:1016F0001B820E9427188160782F9D838C834981EB
:101700005A816B818D810E94F50B40C089EBA82E18
:1017100081E0B82E00E010E0C02E802F0E94680506
:10172000E82EF501D1905F01D82631F40F5F1F4FED
:101730000C30110589F7D9CF8091400281FD0E94BC
:101740006E0580E0FF24F3949D2D9F21D1F08E83C0
:10175000CF82EF2081E009F480E088870E9427187B
:101760008160782F9A8789874E815F8168858A8515
:101770000E94F50BF801E754FE4F8081F826F082B5
:1017800005C08F5FFF0C8630F9F6D0CF0E940B1A90
:101790000E94EC0A9091B8018917B1F00E94EC0AFE
:1017A0008093B8012A960FB6F894DEBF0FBECDBF66
:1017B000DF91CF911F910F91FF90EF90DF90CF902D
:1017C000BF90AF900C9404032A960FB6F894DEBF36
:1017D0000FBECDBFDF91CF911F910F91FF90EF9082
:1017E000DF90CF90BF90AF900895CF93DF93CDB7A8
:1017F000DEB72B970FB6F894DEBF0FBECDBF4F8379
:10180000588769877A878B87DE01119686E0FD010C
:1018100011928A95E9F785E0FE01379601900D92C5
:101820008A95E1F749815A816B817C818D819E8106
:101830000E94E4122B960FB6F894DEBF0FBECDBF08
:10184000DF91CF910895FC01808191810E94BA15AA
:101850000895CF93882309F4A9C0C82F8238C1F412
:101860000E94EC0A81FDA2C069E380911B01909166
:101870001C010E9493170E9447162FEF81EE94E0FF
:10188000215080409040E1F700C0000069E319C09A
:10189000833801F50E94EC0A80FD88C063E58091E1
:1018A0001B0190911C010E9493170E9447162FEF75
:1018B00081EE94E0215080409040E1F700C00000AC
:1018C00063E580911B0190911C010E949517CF91B7
:1018D0000C9447168438C1F40E94EC0A82FD66C05D
:1018E00067E480911B0190911C010E9493170E9454
:1018F00047162FEF81EE94E0215080409040E1F7B1
:1019000000C0000067E4DDCF8CEF8C0F813AF8F463
:101910008C2F0E94B31C811149C06C2F80911B0138
:1019200090911C010E945D17882349F06C2F8091D3
:101930001B0190911C010E9495170E9447166C2F65
:1019400080911B0190911C010E949317C0CF80E2EF
:101950008C0F883048F4C77081E001C0880FCA95A9
:10196000EAF70E94FC15B3CFEBE5EC0FE33040F44F
:10197000F0E0ED56FE4F808190E0CF910C94110B7A
:10198000E8E5EC0FE73150F4F0E0EE0FFF1FEB5904
:10199000FE4F80819181CF910C94270BC03F30F096
:1019A0008C2F0E941319CF910C94001ACF91089597
:1019B000882309F464C0823879F40E94EC0A81FF1C
:1019C0005EC069E380911B0190911C010E949317F6
:1019D0000E94471669E310C08338B1F40E94EC0AF4
:1019E00080FF4DC063E580911B0190911C010E9416
:1019F00093170E94471663E580911B0190911C018B
:101A00000E9495170C944716843879F40E94EC0ACA
:101A100082FF35C067E480911B0190911C010E94F8
:101A200093170E94471667E4E7CF9CEF980F913A0F
:101A300010F4682FE1CF90E2980F983050F487703F
:101A400091E001C0990F8A95EAF7892F0E9402164A
:101A5000D9CF9BE5980F933020F480E090E00C9470
:101A6000110B98E5980F973120F480E090E00C94EA
:101A7000270B803F20F00E947B190C94001A0895D8
:101A8000CF93C82F0E94290CC93349F42FEF87EE5A
:101A900093E0215080409040E1F700C000008C2F7F
:101AA000CF910C94D80C882321F00E94FC150C9443
:101AB00047160895882321F00E9402160C944716B9
:101AC0000895CF92DF92EF92FF920F931F93CF93DF
:101AD000DF937C01062FC72FFC01158112951F7023
:101AE000D281D1110E9419160E94F215882399F013
:101AF000DD2389F08C2F807F803421F080E2800FFD
:101B0000883048F082E00E9491160E94F21591E020
:101B1000D82ED92601C0D12CCC2EC2948FE0C82259
:101B20008C2D90E0FC01EA5AFF4F0C943F248C2F3F
:101B3000807FCF70882311F0C295C07FDD2399F09C
:101B4000CC2309F49BC180E2800F883010F0011192
:101B500004C08C2F0E94FC1503C08C2F0E940C1611
:101B60000E9447168BC1802F0E94D80CCC2309F409
:101B7000AAC180E2800F883010F0011104C08C2FC0
:101B80000E94021603C08C2F0E9412160E94471654
:101B90009AC18C2F807FCF70803211F0C295C07FA8
:101BA000002319F00130C9F022C0DD2371F01123A8
:101BB00041F0113031F40E942C168C2B0E94341607
:101BC00082C10E942C168C2B2BC0112319F01130CE
:101BD00009F479C10E943D1633C0DD2321F016308F
:101BE00008F071C11CC0153008F06DC129C0DD239B
:101BF000D1F01123A1F020E0F701408151816281F1
:101C0000738184810E94AC02B7010E949402811109
:101C100035C1F701858180FF31C18F7085838C2F9D
:101C20000E94530D50C1112359F0093309F037C1F7
:101C3000FFEF27EE83E0F15020408040E1F72DC117
:101C40008C2F0E945A0D3FC18C2F869586958370EC
:101C500019F0813061F037C1DD2321F0802F9C2FF6
:101C6000937002C080E090E00E94110B34C1DD232C
:101C700021F0802F9C2F937002C080E090E00E94A2
:101C8000270B29C1802FDD2319F00E94131902C0F0
:101C90000E947B190E94001A1EC18C2F837009F0CC
:101CA00045C0D11114C1402F429546954770440F4D
:101CB000440F602F6F70862F90E0A0E0B0E0042EFC
:101CC00004C0880F991FAA1FBB1F0A94D2F704FFF4
:101CD00010C00FE010E020E030E004C0000F111F42
:101CE000221F331F4A95D2F7009510952095309505
:101CF00003C000E010E09801C695C695C370BC0112
:101D0000CD01602B712B822B932BC23049F058F4FC
:101D1000C13019F00E943514DAC00E942314D7C0D4
:101D20000E944714D4C00E942114D1C0DD2319F0B1
:101D30008C2F817001C08695882309F4C8C0402F7C
:101D4000429546954770440F440F602F6F70862F61
:101D500090E0A0E0B0E0042E04C0880F991FAA1FF5
:101D6000BB1F0A94D2F704FF10C00FE010E020E080
:101D700030E004C0000F111F221F331F4A95D2F715
:101D8000009510952095309503C000E010E0980173
:101D9000C695C695C370BC01CD01602B712B822BFB
:101DA000932BC23049F058F4C13019F00E94FA1454
:101DB0008EC00E94E8148BC00E940C1588C00E943F
:101DC0005B1485C0CF70DD2339F08C2F0E94811405
:101DD000802F0E94530D7BC0802F0E945A0D8C2FA4
:101DE0000E94A21474C0023F01F128F4003F41F0A8
:101DF000013FA1F03FC0033FF9F0043F39F13AC081
:101E0000DD2341F0153008F05EC08C2F8F710E94E9
:101E1000C71459C0163008F056C0F7CFDD2339F08B
:101E20008C2F8F710E9481144EC0DD23C9F38C2F3B
:101E30008F710E94A21447C0DD2329F08C2F8F716F
:101E40000E946C1440C00E9467143DC0DD2349F01D
:101E5000CF718C2F0E94811463E08C2F0E947C161E
:101E600032C081E00E949116123068F182E00E9437
:101E7000911629C0DD2331F0112391F2802F0E94A9
:101E8000290C21C0112399F2093349F49FEFE7EEA1
:101E9000F3E09150E040F040E1F700C00000802FF7
:101EA0000E94D80C10C04C2F4F70602FC7010E94A9
:101EB0005A030E9492130FC04C2F4F70602FC7011E
:101EC0000E945D0308C088EF8C0D843020F40E94CE
:101ED000EC0A0E940403DD20C9F00E94EE1580FD8B
:101EE00015C0F70112820E94E8150E948114C701F3
:101EF0000E94A70F0E94E815DF91CF911F910F91CB
:101F0000FF90EF90DF90CF900C94A214DF91CF91CF
:101F10001F910F91FF90EF90DF90CF9008950F9356
:101F20001F93CF93DF93EC01688179818A810E94AE
:101F3000C5158C010E941E150E940F14B801CE0118
:101F40000E94610DDF91CF911F910F910895CF9362
:101F5000DF93EC01988189812B813C81232B31F027
:101F60008F3F31F481E09F3F19F403C081E001C04D
:101F700080E080FD19C0CE010E941D0381110CC0BC
:101F80000E94F215882381F08A81882369F082E01B
:101F9000DF91CF910C949116CE010E948F0FCE014C
:101FA000DF91CF910C94E802DF91CF9108950E94C8
:101FB00019160E9429160E9447160E942A1B0E9489
:101FC000001A80E090E00E94110B80E090E00C94F9
:101FD000270B80911B0190911C010E9497170C9474
:101FE000D70F0E9409160C94E90FE92FE295EF70C4
:101FF0004E2F50E0FA013297EE30F105B0F4EA5975
:10200000FF4F0C943F24803F91F018F4883E68F411
:102010000EC0843F51F40BC0883E48F0813F29F444
:1020200006C093FB882780F9089580E0089581E039
:1020300008950E94BA150E94F50F0895CF93DF937B
:1020400000D000D01F92CDB7DEB70F900F900F9049
:102050000F900F90DF91CF910895CF93DF9300D031
:1020600000D000D0CDB7DEB726960FB6F894DEBF0D
:102070000FBECDBFDF91CF9108951F93CF93DF9314
:10208000C091C60116E08091C701C81799F0D0E051
:102090001C9FF0011D9FF00D1124E853FE4F40815D
:1020A000518162817381848195810E942D102196D6
:1020B000C770E9CFDF91CF911F9108954091F8014A
:1020C0005091F9016091FA017091FB018091FC013E
:1020D0009091FD010C942D102091C6019091C701A3
:1020E00056E02917A9F030E0529FF001539FF00D00
:1020F0001124E853FE4F7181761306C07081781366
:1021000003C07281741306C02F5F3F4F2770E9CF61
:1021100080E0089581E008950F931F93CF93DF939C
:102120008091FD0182958F7009F05DC08091FA0168
:10213000882309F458C08091C6011091C7016091AD
:10214000F8017091F901C091FB01D091FC0191E07F
:102150006F3F09F090E0292F06E0811709F443C092
:10216000209721F07F3F21F030E003C031E001C033
:10217000322F90E030FD34C0089FF001099FF00D30
:102180001124DF01A853BE4F11963C9111973713CC
:1021900027C03C91361324C012963C9112973111FE
:1021A0001FC013964D915C9114974C1B5D0B483CDE
:1021B0005105B0F48091FD018F7080618093FD0125
:1021C000E353FE4F80818F708061808388EF91E0C0
:1021D0000E94A70FDF91CF911F910F910C943D109A
:1021E00001968770BACFDF91CF911F910F9108951B
:1021F0008F929F92AF92BF92CF92DF92EF92FF9217
:102200000F931F93CF93DF93CDB7DEB761970FB6D0
:10221000F894DEBF0FBECDBF8C0185E0F801DE0172
:102220001D9601900D928A95E1F7D801DC901196E8
:10223000EC9011971296CC909091F8012091F901B1
:102240004091FB015091FC014115510531F02F3FA8
:1022500031F481E09F3F19F403C081E001C080E0C8
:1022600080FD81C1F8018380948088EFA82E81E0F1
:10227000B82EF090FA01B401641B750BFF2009F42D
:1022800018C18091FD01382F307F683C710508F03E
:10229000D1C031118AC0E21214C0D91212C0FC2C74
:1022A000C1100FC08F7080618093FD010E945E108D
:1022B000C5010E94A70F8091FD01D80115968C934E
:1022C0006FC18114910439F0BFEFEB1206C081E0B9
:1022D000DB1203C003C081E001C080E080FD03C0C9
:1022E00081E08C2502C080E090E080FF10C04C2D82
:1022F0006E2D8D2D0E946C10882349F088EF91E09F
:102300000E94A70FE8EFF1E086E0DF01A4C0892872
:1023100039F0BFEFEB1206C081E0DB1203C003C04F
:1023200081E001C080E080FD03C081E08C2502C017
:1023300080E090E0E82FE170BE2E80FF2CC04C2D95
:102340006E2D8D2D0E946C10F82E811124C0DD861B
:10235000EE868D859E850E94BA15292F22952F70B5
:10236000223018F0243090F405C09F7059F081118C
:1023700009C016C19F7031F0D80115969C91907FCD
:1023800009F40EC1805E883008F40AC1C8010E94B9
:10239000A70FFB2C05C1FC2CCC2009F401C18091B6
:1023A000FD0181608093FD015BC0E21206C0D9127D
:1023B00004C0C11002C0F801A0C0DD86EE868D8584
:1023C0009E850E941910882379F1CC2069F1209113
:1023D000FD01822F82958F7090E0029774F08091BA
:1023E000F8019091F90198878F8319869B868A86D8
:1023F0002C87CE0107960E94A70F86E0F801A8EF70
:10240000B1E001900D928A95E1F70E948C100E9434
:102410005E100DC0E21631F1DD86EE868D859E855B
:102420000E94191081112DC0C8010E94A70FFF241E
:10243000F394B6C03111EECF782D998A888A4D2D4C
:102440005E2D6C2D89890E941E1088EF91E00E94FC
:10245000A70F86E0D5011D928A95E9F70E945E10CC
:10246000F12C9EC0D912D8CFC110D6CFF8018583E8
:10247000C8010E94A70F86E0D5011D928A95E9F751
:102480008FC0CC2089F22091FD01822F82958F7020
:1024900090E002970CF4B1CF8091F8019091F9018E
:1024A0009A8389831B829D828C822E83CE01019622
:1024B000A2CF683C710508F047C0FC2CCC2009F481
:1024C000B3CFE21230C0D9122EC02091FD0120FD01
:1024D00021C0822F82958F70482F50E04115510501
:1024E000C9F0F80125834F30510541F08F5F982FD7
:1024F0009295907F822F8F70892B8583C8010E94CF
:10250000A70F86E0F801A8EFB1E001900D928A953F
:10251000E1F744C086E0F801A8EFB1E001900D9228
:102520008A95E1F73DC0DD86EE868D859E850E9409
:102530001910811162CF8091FD0181608093FD01AE
:10254000C8010E94A70F2CC0782D998A888A4D2D2A
:102550005E2D6C2D89890E941E1086E0D5011D928A
:102560008A95E9F71BC0CC2009F45ECFDD86EE86A4
:102570008D859E850E941910F82E882309F454CF6A
:1025800086E0F801A8EFB1E001900D928A95E1F79D
:1025900088EF91E00E94230C0E948C100E945E1034
:1025A0008F2D61960FB6F894DEBF0FBECDBFDF91C1
:1025B000CF911F910F91FF90EF90DF90CF90BF9040
:1025C000AF909F908F9008951F93CF93DF93CDB7D7
:1025D000DEB72C970FB6F894DEBF0FBECDBF4F838A
:1025E000588769877A878B879C87CE0107960E94D8
:1025F000F8108823D1F09F8188852A853B85232B7D
:1026000031F08F3F31F481E09F3F19F403C081E046
:1026100001C080E080FD47C04F81588569857A857B
:102620008B859C850E942D103EC086E0FE0137966A
:10263000DE01119601900D928A95E1F7FF81E88500
:102640006A857B856115710531F0EF3F31F481E0DA
:10265000FF3F19F403C081E001C080E080FD23C08A
:102660002091C70130E0C9010196877099274091F8
:10267000C60150E084179507F1F1F983EA837D8361
:102680006C8396E0929FD001939FB00D1124A853C4
:10269000BE4FFE01319601900D929A95E1F780931D
:1026A000C7010E943D1016E08091C6019091C701BC
:1026B000891771F1189FC001112488539E4F0E9401
:1026C000F810882329F1E091C6011E9FF001112422
:1026D000E853FE4F408151816281738184819581ED
:1026E0000E942D108091C60190E001968770992775
:1026F0008093C601D9CF0E94F10F1092C7011092AA
:10270000C601E8EFF1E086E0DF011D928A95E9F766
:102710002C960FB6F894DEBF0FBECDBFDF91CF91E0
:102720001F910895EF92FF920F931F93CF93DF9322
:102730008C01892B09F46CC0F12CEE24E394E801A0
:102740002196F8018491843740F4843008F051C018
:10275000813081F0823019F15BC0853709F444C0C3
:10276000A8F19CE7980F903708F052C08F770E942D
:10277000D80C41C00E5F1F4FFE01849190E2980F6C
:10278000983050F48770FE2D01C0FF0F8A95EAF74C
:102790008F2F0E941C1614C00E94290C2DC00E5FA2
:1027A0001F4FFE01849190E2980F983060F487707B
:1027B000FE2D01C0FF0F8A95EAF78F2F0E94221687
:1027C0000E94471619C00E94D80C16C00E5F1F4FFA
:1027D000FE01C491CC2381F08FE99FE00197F1F7CE
:1027E00000C00000C150F6CF0E5F1F4FFE01F490F5
:1027F00003C00E94290C8E018F2D882309F49FCFDE
:10280000EFE9FFE03197F1F700C000008150F5CF0C
:10281000DF91CF911F910F91FF90EF900895089550
:1028200008950C9410140C9411140E9413146093C6
:102830002F027093300280933102909332020C94F5
:10284000D70F0C9415140F931F9300912F02109122
:1028500030022091310230913202602B712B822B99
:10286000932B1F910F910C9415140F931F930091AC
:102870002F021091300220913102309132026023F8
:102880007123822393231F910F910C9415140F939E
:102890001F9300912F02109130022091310230914C
:1028A000320260277127822793271F910F910C9482
:1028B00015140C9410140E94591460932B027093F9
:1028C0002C0280932D0290932E020C94D70F60E07F
:1028D00070E0CB010C945B140F931F9341E050E028
:1028E00060E070E08A019B0104C0000F111F221FED
:1028F000331F8A95D2F7C901B8011F910F910C942B
:102900005B140F931F9341E050E060E070E004C05F
:10291000440F551F661F771F8A95D2F780912B02AF
:1029200090912C02A0912D02B0912E028A019B0160
:10293000082B192B2A2B3B2BC901B8011F910F9192
:102940000C945B140F931F9341E050E060E070E043
:1029500004C0440F551F661F771F8A95D2F7409514
:1029600050956095709580912B0290912C02A091CA
:102970002D02B0912E028A019B01082319232A23DC
:102980003B23C901B8011F910F910C945B140F9365
:102990001F9341E050E060E070E004C0440F551F19
:1029A000661F771F8A95D2F780912B0290912C0297
:1029B000A0912D02B0912E028A019B0108271927B0
:1029C0002A273B27C901B8011F910F910C945B1472
:1029D0000F931F9300912B0210912C0220912D0236
:1029E00030912E02602B712B822B932B1F910F9114
:1029F0000C945B140F931F9300912B0210912C02E7
:102A000020912D0230912E02602371238223932383
:102A10001F910F910C945B140F931F9300912B0245
:102A200010912C0220912D0230912E0260277127E7
:102A3000822793271F910F910C945B140895292FDF
:102A4000220F920F990F890FE82FE695E695E695EC
:102A5000877051E001C0550F8A95EAF785E0E89F3D
:102A6000F0011124E250FE4F20E030E070E04081A0
:102A7000CB01022E02C0969587950A94E2F78170E9
:102A8000819584278523842781932F5F3F4F2530AD
:102A9000310569F70895292F220F920F990F890F99
:102AA000682F669566956695982F977085E0689F64
:102AB000B001112440E050E080E0FB01E40FF51F7D
:102AC000E250FE4F208130E0092E02C03695279556
:102AD0000A94E2F721703327042E01C0220F0A94D2
:102AE000EAF7822B4F5F5F4F4530510531F708956C
:102AF000BF92CF92DF92EF92FF920F931F93CF93EB
:102B0000DF938C01C0902B02D0902C02E0902D021C
:102B1000F0902E0280912F0290913002A09131020C
:102B2000B0913202C82AD92AEA2AFB2ACFE1D0E0A2
:102B3000D701C6010C2E04C0B695A7959795879529
:102B40000A94D2F780FD04C0219790F7B12C07C0FA
:102B5000BC2EB8018C2F0E9479030197A9F38B2D0D
:102B6000DF91CF911F910F91FF90EF90DF90CF9069
:102B7000BF900895CF93DF93EC010E947815BE01BA
:102B80000E947903DF91CF9108951F93CF93DF9334
:102B9000EB019091C501992321F0CB010E94BA1558
:102BA00013C0882349F0CB010E947815182F682F95
:102BB000CE010E941F1504C0CB010E944B15182F97
:102BC000BE01812F0E947903DF91CF911F9108955B
:102BD000809133028595859585950895809133027E
:102BE0008770089590913302977081E009F480E036
:102BF000089580913F02089590913F02892B809320
:102C00003F020895809590913F02892380933F026F
:102C1000089510923F02089590913E02892B80936F
:102C20003E020895809590913E02892380933E0252
:102C3000089510923E02089590913D02892B809351
:102C40003D020895809590913D02892380933D0235
:102C5000089510923D0208958091340208950895D8
:102C60000C942F160C94301690913402981721F082
:102C7000809334020C943216089580913402882394
:102C800029F01092340280E00C9432160895E091FD
:102C90001B01F0911C0180913F028083E0911B0198
:102CA000F0911C01908180913E02892B8083E091FC
:102CB0001B01F0911C01908180913D02892B808342
:102CC00080913402882381F0E0911B01F0911C0176
:102CD0009081892B808380911B0190911C010E941F
:102CE000511781110E943D1680911B0190911C018A
:102CF0000C94F80A0C942F1698E0899F90011124E7
:102D0000262B209333020E948114809133028595F3
:102D1000859585950C947A161092330280E00C9478
:102D20007A16209133028095822380933302982F64
:102D3000977079F430E0482F082E000C550B2417BB
:102D4000350739F08595859585950E94A2140C94D8
:102D50008C16089580E090E00E94612421E08C3E72
:102D60009E4F09F020E0822F089582E090E00C94BD
:102D7000592483E090E00C945924CF9384E090E0B0
:102D80000E945924C82F81E290E00E9459242C2FE0
:102D900030E0A901582BCA01CF910895CF93C92FD4
:102DA000682F84E090E00E9467246C2F81E290E01D
:102DB000CF910C946724AB01BC018FE090E00C94A0
:102DC0007924AB01BC0183E190E00C94792460E0AC
:102DD00070E0CB010C94E11660E070E0CB010E9442
:102DE000DB160C94E7166CEE7EEF80E090E00E941C
:102DF000852460E082E090E00E94672460E083E048
:102E000090E00E94672410922F02109230021092DC
:102E100031021092320260E084E090E00E94672468
:102E200060E081E290E00E94672460E085E090E04D
:102E30000E94672460E086E090E00E9467246FEFC4
:102E400087E090E00E94672440E050E0BA0188E00B
:102E500090E00E94792460E08DE090E00E94672479
:102E600040E050E0BA0188E190E00E94792460E0FF
:102E700087E190E00E94672440E050E0BA018CE1D5
:102E800090E00E94792460E080E290E00E94672454
:102E90000C94EC160C94F316682F8EE090E00C94D2
:102EA0006724FC01329697E080E0915029F021914F
:102EB0002223D9F38F5FF9CF0895662349F0FC01EF
:102EC000329608962191621729F0E817F907D1F791
:102ED00080E0089581E008959C01FC0132969FEF07
:102EE00080E04191461789F09F3F19F4411101C0DC
:102EF000982F8F5F8630A9F79F3F39F0F901E90FCE
:102F0000F11D97FDFA956283089508959C012A5F4B
:102F10003F4FFC014281461301C012820196821785
:102F20009307B9F708950C946C170C9486170296C2
:102F300026E0FC0111922A95E9F7089508950C9472
:102F40009E170C949E17CF930E94A1170E944F06C4
:102F50000E949F17C0E08C2F0E946805811104C059
:102F6000CF5FCC30C1F701C081E0CF9108950C94C0
:102F70009E170C94B7170E94B91780918302843072
:102F800049F11092410220E488E190E00FB6F894F4
:102F9000A895809360000FBE2093600080E00E949F
:102FA00004030E94B91783B7817F846083BF83B70E
:102FB000816083BF7894889583B78E7F83BF0FB677
:102FC000F894A895809160008861809360001092C9
:102FD00060000FBE08950C949E170E94F10F0E948E
:102FE000EC0A0E9404030C94EB171F920F920FB689
:102FF0000F9211248F939F93AF93BF9380914102BF
:10300000811113C08091790290917A02A0917B0284
:10301000B0917C024196A11DB11D809379029093DD
:103020007A02A0937B02B0937C02BF91AF919F91F3
:103030008F910F900FBE0F901F90189582E084BD66
:1030400093E095BD9AEF97BD80936E0008952FB7DA
:10305000F8948091790290917A02A0917B02B091CC
:103060007C022FBF08959C014FB7F894809179029C
:1030700090917A02A0917B02B0917C024FBF821B9B
:10308000930B089578941F920F920FB60F9211240C
:103090008F939F93AF93BF938091790290917A021F
:1030A000A0917B02B0917C020196A11DB11D80937D
:1030B000790290937A02A0937B02B0937C02BF9135
:1030C000AF919F918F910F900FBE0F901F90189509
:1030D00087E797E790930108809300089AE088E1DA
:1030E0000FB6F894A895809360000FBE909360008F
:1030F000FFCF0E94AA16811102C00E944A170E94A7
:10310000B516809340020E94BD1690937E02809374
:103110007D020E94B916682F70E080E090E00C9468
:10312000211480914B0280FF0BC06091210185E04A
:10313000689FB001112475956795759567952BC0AB
:1031400081FF09C06091210185E0689FB0011124D1
:103150007595679520C082FF07C06091210185E0C9
:10316000689FB001112417C090914A029923D1F0B1
:1031700060912001961788F72091210185E0289F12
:1031800090011124929FA001939F500D112470E093
:10319000CA010E942B246038710540F46115710545
:1031A00019F406C065E070E0862F08958FE7089552
:1031B00081E0089580914B0280FF08C060911E015C
:1031C00070E0759567957595679521C081FF06C07C
:1031D00060911E0170E07595679519C082FF04C06B
:1031E00060911E0170E010C090914A02992399F0FD
:1031F00060911D019617A0F780911E01899FC00163
:10320000112470E00E942B246038710540F4611590
:10321000710519F406C061E070E0862F08958FE70C
:10322000089581E00895803F21F40E9491188195CE
:1032300004C0813F29F40E94911880934F020895A1
:10324000823F21F40E949118819504C0833F29F4A4
:103250000E94911880934E020895893F19F40E94AC
:10326000DA1805C08A3F31F40E94DA1881958093FC
:10327000500208958B3F21F40E94DA18819504C012
:103280008C3F29F40E94DA18809351020895843FFC
:1032900021F480914D02816017C0853F21F4809117
:1032A0004D02826011C0863F21F480914D028460FE
:1032B0000BC0873F21F480914D02886005C0883F94
:1032C00031F480914D02806180934D0208958D3FCD
:1032D00021F480914B0281600BC08E3F21F48091DC
:1032E0004B02826005C08F3F29F480914B028460BD
:1032F00080934B020895803F39F480914F0287FFFD
:103300006CC010924F0269C0813F29F480914F0236
:103310001816BCF362C090914E02823F29F497FFC9
:103320005CC010924E0259C0833F19F41916CCF3B9
:1033300054C0893F41F48091500218160CF04DC0E2
:10334000109250024AC08A3F29F48091500287FFB0
:1033500044C0F6CF8B3F39F48091510287FF3DC0C6
:10336000109251023AC08C3F29F4809151021816F4
:10337000BCF333C0843F21F480914D028E7F17C08F
:10338000853F21F480914D028D7F11C0863F21F44D
:1033900080914D028B7F0BC0873F21F480914D02BD
:1033A000877F05C0883F31F480914D028F7E8093E6
:1033B0004D0213C08D3F21F480914B028E7F0BC0D4
:1033C0008E3F21F480914B028D7F05C08F3F29F401
:1033D00080914B028B7F80934B0280914E02811132
:1033E0000EC080914F0281110AC08091500281115C
:1033F00006C080915102811102C010924A020895C4
:103400008CE492E00E94030B0E94271890934902DB
:10341000809348020895CF93DF9300D000D000D06E
:10342000CDB7DEB786E0ECE4F2E0DE011196019064
:103430000D928A95E1F780914E02811105C080912D
:103440004F02882309F47AC0809146029091470286
:103450000E943318AC0190914A02992339F02091CF
:10346000220130E02417350758F068C0209143024C
:103470008AE0289F900111242417350718F05EC0B8
:103480009F3F19F09F5F90934A0210925002109252
:10349000510280914E02181624F40E9491188093D4
:1034A0004E0280914E0287FF05C00E9491188195BF
:1034B00080934E0280914F02181624F40E949118B6
:1034C00080934F0280914F0287FF05C00E949118A0
:1034D000819580934F0230914E023323E1F0209189
:1034E0004F022223C1F045EB3403C001112499237C
:1034F00019F090934E0203C081E080934E0235EBA9
:103500002303C0011124992319F090934F0203C0A3
:1035100081E080934F020E94001A809148029091AE
:103520004902909347028093460286E0FE0131965D
:10353000ACE4B2E001900D928A95E1F780915002DF
:10354000811105C080915102882309F47AC08091CD
:103550004402909145020E943318AC0190914A02B6
:10356000992339F020911F0130E02417350758F0D6
:1035700068C0209142028AE0289F900111242417FC
:10358000350718F05EC09F3F19F09F5F90934A0285
:1035900010924E0210924F0280915002181624F49D
:1035A0000E94DA18809350028091500287FF05C074
:1035B0000E94DA188195809350028091510218166A
:1035C00024F40E94DA18809351028091510287FFFF
:1035D00005C00E94DA188195809351023091500203
:1035E0003323E1F0209151022223C1F045EB340353
:1035F000C0011124992319F09093500203C081E077
:103600008093500235EB2303C0011124992319F054
:103610009093510203C081E0809351020E94001AEE
:103620008091480290914902909345028093440210
:1036300086E0FE013196ACE4B2E001900D928A95ED
:10364000E1F726960FB6F894DEBF0FBECDBFDF912F
:10365000CF910895ECE4F2E086E0DF011D928A95B7
:10366000E9F710924A0210924B020895833081F1DB
:1036700028F4813059F08230D1F00895853009F472
:1036800049C0B8F1863009F456C0089580914302CC
:10369000262F30E0280F311D2F3F310524F4680F0D
:1036A0006093430208958FEF8093430208958091C1
:1036B0002201262F30E0280F311D2F3F310524F441
:1036C000680F6093220108958FEF8093220108957F
:1036D00080912101262F30E0280F311D2F3F310529
:1036E00024F4680F6093210108958FEF80932101E6
:1036F000089580912001262F30E0280F311D2F3FA3
:10370000310524F4680F6093200108958FEF8093B2
:103710002001089580911E01262F30E0280F311DD1
:103720002F3F310524F4680F60931E0108958FEF39
:1037300080931E01089580911D01262F30E0280FEF
:10374000311D2F3F310524F4680F60931D0108954A
:103750008FEF80931D010895833011F128F481309B
:1037600049F0823091F00895853081F120F1863062
:10377000C1F1089580914302681720F4861B80935D
:103780004302089510924302089580912201681720
:1037900020F4861B8093220108951092220108953F
:1037A00080912101681720F4861B809321010895E0
:1037B00010922101089580912001681720F4861B42
:1037C00080932001089510922001089580911E0198
:1037D000681720F4861B80931E01089510921E0125
:1037E000089580911D01681720F4861B80931D01A8
:1037F000089510921D0108950F931F9341E050E02A
:1038000060E070E08A019B0104C0000F111F221FBD
:10381000331F8A95D2F7C901B8010E9421141F9164
:103820000F910C94F10F8B3109F468C058F58B306F
:1038300009F486C078F4863009F445C020F4853058
:1038400009F44BC07FC0873009F44AC0883009F4BE
:1038500077C078C0803109F464C068F48E3009F014
:1038600071C08091400282FB222720F991E09227CB
:1038700090FB82F94CC0863109F462C0893109F4A9
:103880005FC060C08A32E1F060F4873209F455C04D
:1038900028F48E3108F456C08D5150C08932E9F0B9
:1038A00051C0833450F48A3308F045C0853309F49D
:1038B00044C0883309F444C045C08334F1F142C0A8
:1038C0000E944A173DC080914002817F8E7F809385
:1038D000400281E08093530208950E940E0330C09D
:1038E00080914002982F9095917090FB80F9809381
:1038F0004002911125C0897F877F10C080914002CE
:1039000081FB222720F991E0922790FB81F9809397
:1039100040029923A9F08091400281608093400287
:103920000FC08091400283FB222720F991E092276B
:1039300090FB83F9ECCF895301C080E00E94FC1B0F
:1039400081E0089580E0089580E008950C94A41C1F
:103950008E518A3030F4E82FF0E0EA56FE4F808135
:10396000089580E00895CF93C82F8091530281304D
:1039700051F018F0823099F17BC00E94F915823223
:1039800009F078C004C00E94F915823261F48C2FCE
:103990000E94A61C811104C08C2F0E94131C1DC004
:1039A00081E090E01AC08C2F0E94A41C811114C0E9
:1039B000C43179F048F4CB3079F0C03109F05EC001
:1039C00082E08093530208C0C93219F0C83321F055
:1039D00055C01092530252C081E0817051C0C9326B
:1039E00079F108F5C43161F1A0F4C73009F044C0A1
:1039F0001092430284E180932201C09321018CE361
:103A00008093200188E080931E0188E280931D014D
:103A100033C082EE8C0F863078F58C2F0E94A81C64
:103A20008093520229C0CE34E9F020F4CB3421F542
:103A30006AE013C0C13579F0C235F1F461E00DC020
:103A400080915202882319F01092520215C081E031
:103A50008093530215C061E006C0809152020E941B
:103A6000361B0AC06AE0809152020E94AC1B04C05F
:103A70001092530280E004C081E002C080E0ADCF2C
:103A8000CF91089580915C020895CF93DF9300D089
:103A90001F92CDB7DEB790918302943019F58983D8
:103AA0007B836A8382E08093E9008FEF9091E80046
:103AB000815095FD06C095ED9A95F1F700008111B2
:103AC000F5CF8091E80085FF0DC040E050E063E055
:103AD00070E0CE0101960E948D1F8091E8008E77E4
:103AE0008093E8000F900F900F90DF91CF91089591
:103AF000CF93DF93EC010E94701F823011F084306D
:103B000031F4BE0184E0DF91CF910C94451DDF912B
:103B1000CF910895BC0183E00C94451DCF93DF93B2
:103B2000EC010E94701F823011F08430F9F482E0C1
:103B30008093E9008FEF9091E800815095FD06C0D9
:103B400095ED9A95F1F700008111F5CF8091E8008D
:103B500085FF0CC040E050E066E070E0CE010E94BE
:103B60008D1F8091E8008E778093E800DF91CF91E0
:103B70000895CF93DF93EC010E94701F823011F003
:103B8000843039F581E08093E9008FEF9091E8006F
:103B9000815095FD06C095ED9A95F1F700008111D1
:103BA000F5CF8091E80085FF14C040E050E068E068
:103BB00070E0CE010E948D1F8091E8008E77809387
:103BC000E80088E0FE01A4E5B2E001900D928A953C
:103BD000E1F7DF91CF91089580918202811109C0B0
:103BE0000E941E210E947B218091E20084608093CC
:103BF000E2000895109282020895089508950C94A9
:103C0000ED1742E061EC81E00E94972042E261EC16
:103C100082E00C94972080918502833009F460C083
:103C200030F4813071F0823009F499C008958A30FF
:103C300009F485C08B3009F46BC0893009F0A7C046
:103C400020C080918402813A09F0A1C08091E800EF
:103C5000877F8093E8008091880290918902892B68
:103C600021F468E084E592E003C060E080E090E049
:103C700070E00E94D81F8091E8008B778093E80065
:103C8000089580918402813209F081C08091880278
:103C900090918902029708F07AC08091E800877FAE
:103CA0008093E8008091E80082FD05C08091830246
:103CB0008111F8CF6CC02091F3008091F20090E068
:103CC000922B029729F48091F1008B7F813021F4AF
:103CD0008091F10080935C028091E8008B7753C063
:103CE00080918402813A09F052C0809188029091BB
:103CF0008902892B09F04BC08091E800877F80936F
:103D0000E8008091E80080FFFCCF80912D0136C053
:103D1000809184028132D9F5809188029091890244
:103D2000892BA9F58091E800877F8093E8000E94A5
:103D3000CC208091860280932D010C94F10F80910C
:103D40008402813221F58091E800877F8093E8002A
:103D50000E94CC208091870280935D02089580911B
:103D60008402813AA1F48091E800877F8093E80083
:103D70008091E80080FFFCCF80915D028093F1008C
:103D80008091E8008E778093E8000C94CC20089511
:103D900084B7877F84BF0FB6F894A89580916000A0
:103DA000886180936000109260000FBE90E080E810
:103DB0000FB6F89480936100909361000FBE0E944B
:103DC0004D0B0E941E210E947B218091E2008460A5
:103DD0008093E20078940E9410240E94550B83E2A5
:103DE00091E00E94E70A80918302853069F40E9485
:103DF000BB17809181028823B1F30E94A317882307
:103E000091F30E94771FEFCF0E945D0BECCF0C94D3
:103E1000091F292F332723303105C9F060F42130E1
:103E2000310581F02230310509F04AC08BE390E082
:103E300024E833E049C02132310511F12232310545
:103E400079F13EC082E190E02FEB33E03DC099274D
:103E50008130910561F040F08230910559F003976F
:103E600079F5ECE3F3E008C0E0E8F3E005C0E0E753
:103E7000F3E002C0E2E4F3E0849190E09F0124C00B
:103E80006115710541F061307105D1F489E090E070
:103E90002FEA33E019C089E090E026E933E014C04E
:103EA0006115710541F06130710551F481E890E0D0
:103EB00021ED33E009C080E490E022E534E004C065
:103EC00080E090E020E030E0FA0131832083089523
:103ED00080918302843011F081E0089582E008959A
:103EE00080915E02811102C00C94681F089580E1E8
:103EF00089BD82E189BD09B400FEFDCF8091D80063
:103F00008F7D8093D8008091E00082608093E000F4
:103F10008091E00081FDFCCF0895CF92DF92EF9277
:103F2000FF920F931F93CF93DF93EC018B017A01E4
:103F30000E94EB20811133C0E114F10439F0F70144
:103F400080819181081B190BC80FD91FC12CD12C5E
:103F50000115110519F18091E80085FD16C08091C9
:103F6000E8008E778093E800E114F10449F0F7014E
:103F700080819181C80ED91ED182C08285E00FC098
:103F80000E94EB20882321F30AC089918093F100DD
:103F900001501109FFEFCF1ADF0ADACF80E0DF917D
:103FA000CF911F910F91FF90EF90DF90CF900895E8
:103FB00020918A0230918B022617370748F061154D
:103FC000710539F42091E8002E772093E80001C0B4
:103FD000B901FC0120E06115710579F1809183023E
:103FE0008823F1F18530F1F18091E80083FD3CC038
:103FF0008091E80082FD2EC08091E80080FFEBCF29
:104000002091F3008091F20090E0922B61157105F0
:1040100051F08830910538F421912093F1006150DE
:1040200071090196F3CF21E0089709F020E0809113
:10403000E8008E778093E800CECF2111CFCF0AC061
:1040400080918302882361F0853061F08091E800DF
:1040500083FD0AC08091E80082FFF2CF80E00895DE
:1040600082E0089583E0089581E0089520918A0216
:1040700030918B022617370748F06115710539F426
:104080002091E8002E772093E80001C0B901FC01DF
:1040900020E06115710591F180918302882309F474
:1040A00040C0853009F43FC08091E80083FD3DC0E9
:1040B0008091E80082FD2FC08091E80080FFE9CF69
:1040C0002091F3008091F20090E0922B6115710530
:1040D00059F08830910540F424912093F1003196F5
:1040E000615071090196F2CF21E0089709F020E0B4
:1040F0008091E8008E778093E800CBCF2111CCCF60
:104100000AC080918302882361F0853061F080913C
:10411000E80083FD0AC08091E80082FFF2CF80E0D2
:10412000089582E0089583E0089581E00895982F2E
:10413000973068F59093E900981739F07091EC008A
:104140002091ED005091F00003C0242F762F50E015
:1041500021FD02C09F5FECCF3091EB003E7F30939A
:10416000EB003091ED003D7F3093ED003091EB009E
:1041700031603093EB007093EC002093ED0050938E
:10418000F0002091EE0027FDE5CF80E008958F70CC
:104190008093E90081E008958091840287FF11C037
:1041A0008091E80082FD05C0809183028111F8CFE3
:1041B00011C08091E8008B770BC080918302882327
:1041C00049F08091E80080FFF8CF8091E8008E7779
:1041D0008093E80008952091E4003091E50095E691
:1041E0004091EC00842F817040FF23C08091E80053
:1041F00080FD1DC080918302882399F0853099F05D
:104200008091EB0085FD11C04091E4005091E500E4
:104210002417350729F3915011F09A01E1CF84E07A
:10422000089582E0089583E0089581E0089580E094
:1042300008954091E80042FFDDCF08950E948C214F
:104240000E949421E0EEF0E0808181608083E8EDBF
:10425000F0E080818F77808319BCA7EDB0E08C916E
:104260008E7F8C9380818F7E80831092820208954E
:104270000F931F93CF93DF930E948C210E94942170
:10428000C8EDD0E088818F778883888180688883B3
:1042900088818F7D888319BC1092830210927F02DF
:1042A000109281021092800200EE10E0F8018081ED
:1042B0008B7F808388818160888342E060E080E03A
:1042C0000E949720E1EEF0E080818E7F8083E2EE15
:1042D000F0E0808181608083808188608083F80144
:1042E00080818E7F8083888180618883DF91CF91F8
:1042F0001F910F910895E8EDF0E080818F7E80831B
:10430000E7EDF0E080818160808384E082BF81E01E
:10431000809382020C943821E8EDF0E080818E7F5A
:1043200080831092E20008951092DA001092E1006A
:1043300008951F920F920FB60F9211242F933F935F
:104340004F935F936F937F938F939F93AF93BF939D
:10435000EF93FF938091E10082FF0BC08091E20018
:1043600082FF07C08091E1008B7F8093E1000E9473
:104370000F248091DA0080FF1FC08091D80080FF59
:104380001BC08091DA008E7F8093DA008091D90083
:1043900080FF0DC080E189BD82E189BD09B400FEC6
:1043A000FDCF81E0809383020E94EC1D05C019BC03
:1043B000109283020E94FA1D8091E10080FF19C0D3
:1043C0008091E20080FF15C08091E2008E7F809393
:1043D000E2008091E20080618093E2008091D80049
:1043E00080628093D80019BC85E0809383020E948C
:1043F000FE1D8091E10084FF30C08091E20084FFC7
:104400002CC080E189BD82E189BD09B400FEFDCFE9
:104410008091D8008F7D8093D8008091E1008F7EBD
:104420008093E1008091E2008F7E8093E200809192
:10443000E20081608093E20080917F02882311F086
:1044400084E007C08091E30087FD02C081E001C0E5
:1044500083E0809383020E94FF1D8091E10083FF2F
:1044600029C08091E20083FF25C08091E100877F11
:104470008093E10082E08093830210927F0280911A
:10448000E1008E7F8093E1008091E2008E7F809337
:10449000E2008091E20080618093E20042E060E00F
:1044A00080E00E9497208091F00088608093F00067
:1044B0000E94FD1DFF91EF91BF91AF919F918F9150
:1044C0007F916F915F914F913F912F910F900FBE10
:1044D0000F901F9018951F920F920FB60F921124F4
:1044E0002F933F934F935F936F937F938F939F93FC
:1044F000AF93BF93CF93DF93EF93FF93C091E90006
:10450000CF708091EC00D82FD17080FDD0E8109250
:10451000E9008091F000877F8093F00078940E94FA
:10452000AF221092E9008091F00088608093F00043
:10453000CD2BCF70C093E900FF91EF91DF91CF9128
:10454000BF91AF919F918F917F916F915F914F91AB
:104550003F912F910F900FBE0F901F9018951F93B2
:10456000CF93DF93CDB7DEB7AA970FB6F894DEBF2F
:104570000FBECDBFE4E8F2E08091F100819322E02C
:10458000EC38F207C9F70E940B1E8091E80083FF08
:104590002EC18091840290918502492F50E04A30CB
:1045A000510508F024C1FA01EC58FF4F0C943F2448
:1045B000803821F0823809F01AC108C08091800249
:1045C00090918102992389F082600FC080918802C6
:1045D0008F70873008F00BC18093E9008091EB0069
:1045E00085FB882780F91092E9009091E800977F79
:1045F0009093E8008093F1001092F100D1C0282F31
:104600002D7F09F0F4C0882319F0823061F0EFC0EB
:1046100080918602813009F0EAC0933009F080E091
:10462000809381022EC08091860281112AC08091E0
:1046300088028F702FEF280F263008F0D8C08093A3
:10464000E9002091EB0020FF1CC0933021F4809101
:10465000EB00806214C09091EB0090619093EB00AE
:1046600021E030E0A90102C0440F551F8A95E2F70E
:104670004093EA001092EA008091EB0088608093FA
:10468000EB001092E9008091E800877F8093E800BA
:104690000E94CC20ACC08111AAC0109186021F7765
:1046A0008091E3008078812B8093E3008091E80083
:1046B000877F8093E8000E94CC208091E80080FFF3
:1046C000FCCF8091E30080688093E300111102C069
:1046D00082E001C083E08093830289C080588230E9
:1046E00008F085C080918602909187028C3D53E04E
:1046F000950779F583E08A838AE289834FB7F89436
:10470000DE01139620E03EE051E2E32FF0E050930B
:104710005700E49120FF03C0E295EF703F5FEF7018
:104720008E2F90E0EA3010F0C79601C0C0968D93AE
:104730009D932F5F243149F74FBF8091E800877F19
:104740008093E8006AE270E0CE0101960E94D81FD3
:1047500016C06091880270918902AE014F5F5F4F71
:104760000E94071FBC01892B09F441C09091E80009
:10477000977F9093E80089819A810E9436208091EA
:10478000E8008B778093E80032C0803881F5809113
:10479000E800877F8093E80080917F028093F1009A
:1047A0008091E8008E7772CF811121C080918602BE
:1047B0009091870299270297D4F48091E800877F2F
:1047C0008093E8008091860280937F020E94CC2033
:1047D00080917F02811106C08091E30087FD02C0B5
:1047E00081E001C084E0809383020E94011E8091D9
:1047F000E80083FF0AC08091E800877F8093E8008B
:104800008091EB0080628093EB00AA960FB6F8943B
:10481000DEBF0FBECDBFDF91CF911F9108950895E8
:10482000CF93809183028823A1F0C091E900CF70DB
:104830009091EC00892F817090FD80E8C82B109238
:10484000E9008091E80083FD0E94AF22CF70C09301
:10485000E900CF91089597FB072E16F4009407D036
:1048600077FD09D00E94452407FC05D03EF49095C1
:1048700081959F4F0895709561957F4F0895EE0F34
:10488000FF1F0590F491E02D0994AA1BBB1B51E179
:1048900007C0AA1FBB1FA617B70710F0A61BB70BB0
:1048A000881F991F5A95A9F780959095BC01CD0155
:1048B0000895F999FECF92BD81BDF89A992780B5E8
:1048C0000895A8E1B0E042E050E00C948D24262F3A
:1048D000F999FECF92BD81BDF89A019700B40216F6
:1048E00039F01FBA20BD0FB6F894FA9AF99A0FBEA4
:1048F00008950396272F0E9468240E946724252F7D
:104900000E946824242F0C9468240196272F0E946B
:1049100068240C946724DC01CB01FC01F999FECFDB
:1049200006C0F2BDE1BDF89A319600B40D92415037
:0A4930005040B8F70895F894FFCF47
:10493A00F6F731333236946697C6343500000000F4
:10494A00000001A50100A60106A601350228086497
:10495A003C0714421DB91D8E1D8A1D781D01353470
:10496A00C6976694E200E900EA00B500B600B7000F
:10497A00CD008301CC008A01920194012102230215
:10498A0024022502260227022A02B300B4006F007D
:10499A007000818283E200E900EA00B500B600B740
:1049AA0000CD008301CC008A0192019401210223E7
:1049BA000224022502260227022A02B300B4006F4B
:1049CA0000700081828301020304050607080900BA
:00000001FF
