:100000000C9421020C940C0A0C9468020C94680263
:100010000C9468020C9468020C9468020C946802B8
:100020000C9468020C9468020C949C200C9470212F
:100030000C9428170C9468020C9468020C946802C3
:100040000C9468020C9468020C9468020C94680288
:100050000C9468020C9473170C9468020C94680258
:100060000C9468020C9468020C9468020C94680268
:100070000C9468020C9468020C9468020C94680258
:100080000C9468020C9468020C9468020C94680248
:100090000C9468020C9468020C9468020C94680238
:1000A0000C9468020C9468020C94680229431E00A8
:1000B0001F002000210022002B0014001A0008005D
:1000C00015001700E10004001600070009000A00EF
:1000D000E0001D681B00060019000500000000007C
:1000E00050004F00E2002C00000000005100010011
:1000F0005200015123002400250026002700310072
:100100001C0018000C001200130034000B000D003E
:100110000E000F003300E50011001000360037001C
:10012000380001002A0028005100520000000000A1
:1001300001513900AA00A9000000000001000100DF
:100140000100010001000100010001000100350073
:100150000100010001001E001F00200021002200FC
:100160000100010001000100010001000000000089
:100170000100010001000100000000004D0001002D
:100180004A0001000100010001000100010001001E
:10019000010001002D002E000100010023002400B9
:1001A0002500260027000100010001002F0030007B
:1001B0000100010001000100010001000000000039
:1001C0000100010001000100000000002900010001
:1001D0000100010001000100010001000100010017
:1001E0000100010001000100010001000100010007
:1001F00001001D00010001000100010000000000DD
:1002000001000100010001000000000001000100E8
:1002100001002900010001000100010001002D0082
:1002200001000100010001000100010001000100C6
:1002300001000100010001000100010001000100B6
:1002400001000100010001000100010000000000A8
:1002500001000100010001000000000001003A005F
:100260003B003C003D003E00010001000100010098
:100270000100010001000100010001000100010076
:100280000100010001000100010001000000000068
:100290000100010001000100000000000100010058
:1002A000010001003F0040004100420043004400C3
:1002B00001000100010001000100450001000100F2
:1002C0000100010001000100010001000100010026
:1002D0000100010001000100010001000000000018
:1002E00001000100010001000000000004033000D3
:1002F00000002C03440061006300740079006C006E
:100300002D004D0061006E00750066006F007200E8
:100310006D0020002800350078003600290000001C
:100320000E037400730068006F0072007400000018
:100330000403090409023B00020100A0FA090400B9
:100340000001030101000921110100012240000701
:1003500005810308000A09040100010300000009E7
:1003600021110100012281000705820320000A12E9
:1003700001100100000008EDFE60300100010203E1
:100380000105010902A10185020901A10005091960
:100390000129051500250195057501810295017555
:1003A0000381010501093009311581257F95027509
:1003B00008810609381581257F9501750881060594
:1003C0000C0A38021581257F950175088106C0C089
:1003D00005010980A101850319012AB7001501262D
:1003E000B700950175108100C0050C0901A10185B8
:1003F0000419012AA002150126A002950175108199
:1004000000C005010906A101050719E029E715004B
:10041000250195087501810295017508810105077F
:10042000190029FF150026FF0095067508810005B3
:10043000081901290595057501910295017503912A
:1004400001C011241FBECFEFDAE0DEBFCDBF04B67E
:1004500003FE27C080918C0290918D02A0918E02A4
:10046000B0918F028730904BA740B04BD1F41092DF
:100470008C0210928D0210928E0210928F0214BE86
:1004800084B7877F84BF0FB6F894A89580916000E9
:10049000886180936000109260000FBEE0E0F8E396
:1004A000099511E0A0E0B1E0E8E7F7E402C00590AB
:1004B0000D92A03AB107D9F722E0A0EAB1E001C05D
:1004C0001D92AC38B207E1F70E94CD1D0C94922327
:1004D0000C9400000C943F0521E08D31984609F002
:1004E00020E0822F089588309D4529F4FB01828108
:1004F00081110E948C1381E0089581E008950C948D
:10050000730208950C9481021F93CF93DF9300D060
:1005100000D00F92CDB7DEB749835A836B833091F9
:10052000C50189819A8131111DC06623B9F022234A
:10053000A9F00E949914182F682F89819A810E942E
:10054000421469817A81812F0F900F900F900F9044
:100550000F90DF91CF911F910C9434030E9470147F
:10056000182FEFCF0E94991469817A81EDCFFC0199
:10057000262F408151816281738184810C94840291
:10058000CF93DF93EC0160E00E94B702BE01DF91E0
:10059000CF910C9482020E94DD15811102C00E944D
:1005A0007A160C946A020C94410508950C94D502B5
:1005B00081E008950C94D802CF93C82F0E94D602F0
:1005C0008C2FCF910C94DA0208950E94700F0E9434
:1005D000E4022FEF84E39CE0215080409040E1F75B
:1005E00000C000000C9497170F931F93CF93DF93D5
:1005F000EC0161E00E94B7028C01BE010E947F0203
:10060000882329F1BE01C8010E94D0078823F9F090
:10061000BE01C8010E9411088823C9F0BE01C801AB
:100620000E943409882399F08A81882339F00115C2
:100630008CE5180751F00E3D1C4579F0CE01DF9195
:10064000CF911F910F910C947D020E94E50280E0F2
:10065000DF91CF911F910F9108950E947A16F7CFE5
:1006600090E080E008950895972F70E026E0929F33
:10067000600D711D1124FB0198E4899FE00DF11DAF
:100680001124EE0FFF1FE455FF4F859194910895BB
:10069000FC01EE0FFF1FE451FD4F859194910895E9
:1006A000CF93DF930E9434030E946504EC0181150F
:1006B00020E5920708F042C0811530E4930708F066
:1006C000BDC0883E910528F5803E910508F09DC08B
:1006D000883A910588F4853A910508F08FC08130F9
:1006E000910509F492C0009709F48FC0049708F0AF
:1006F0008CC0D0E0C0E089C08F3B910508F489C070
:10070000805C9109C03CD105A0F30E944803EC0134
:100710007CC08115904250F4C11581E0D80708F0E3
:1007200074C0C03FD10528F3D0656FC0C11590E3F8
:10073000D90708F079C0CE019F70E7CF811525E574
:10074000920758F5811534E5930708F0A6C0811586
:1007500042E5940750F4C11581E5D80708F471C04B
:10076000DC2FCC27C16FD06A50C0982F96959695F4
:100770009E0123703327C115D34508F07FC0C1E027
:10078000D0E002C0CC0FDD1F2A95E2F720E2929F55
:10079000C0011124C82BD92B6FC0C11589E5D8071A
:1007A000A8F4C11598E5D90708F07CC0C11526E565
:1007B000D20708F09ECF8C2F0E94FC04C82FD0E0F7
:1007C000DC2FCC27CC27DF71D0621FC0C1153AE5E2
:1007D000D30708F46CC0CE0190568115904208F002
:1007E00088CF8D2F8F710E94FC0490E0982F88276E
:1007F00088279F719C012C2BE901E6CFC55AD0E0D8
:10080000CE59DE4FC881D0E0D064CE01DF91CF91C8
:100810000895C85AD0E0CC0FDD1FCC5CDE4F0990A4
:10082000D881C02DD464F1CFCE019927D3FF03C066
:10083000EC01D86CEACFEC01D06CE7CFDF70D06A66
:10084000E4CFCE01E4E096958795EA95E1F78370D1
:100850002C2F26952695237090E2299F9001112434
:10086000382B8C2F8370C1E0D0E002C0CC0FDD1F8D
:100870008A95E2F7C22BD32BDC68C7CFC1E0D0E06A
:1008800002C0CC0FDD1F2A95E2F730E2939FC00132
:100890001124C82BD92BDA68B8CFD82FCC27C46F36
:1008A000D06AB3CFDC2FCC27C06FD06AAECF8C2FED
:1008B0008F700E94FC0434E0D695C7953A95E1F715
:1008C000CF709C2FEC01D069A0CF82389105B1F197
:1008D000B0F48133910509F475C048F4893291056B
:1008E00009F469C08A32910509F473C0089585330B
:1008F000910509F459C08933910501F10895833EAA
:100900009105A9F138F4803E9105F9F0823E9105F8
:1009100049F10895863E9105A9F1873E9105C9F1F7
:10092000843E910519F520917E0221FF1FC0809120
:100930007D0284FD14C087EE90E0089520917D0231
:100940002370A1F080EE90E0089520917D0220FDBB
:1009500047C030917E0230FF09C024FF44C090E0C0
:1009600080E004C020917D0222FDF7CF0895209100
:100970007D0222FD3BC030917E0230FDE3CF24FF9B
:10098000F5CFEDCF20917D0223FFF0CF24FDE7CFFF
:10099000D2CF20917D0223FD2CC030917E0231FF09
:1009A000EECF84EE90E0089520917D0225FFDECF0A
:1009B00089E290E0089520917D0225FFD7CF85E35D
:1009C00090E0089520917D0226FFD0CF8AE290E04A
:1009D000089520917D0226FFC9CF81E390E008951C
:1009E00089E390E0089583EE90E0089582EE90E030
:1009F000089586EE90E0089590917D0292FF06C0E2
:100A0000282F28712830F9F4877F846093FF06C06F
:100A1000282F28712831F1F4877E846120917E028D
:100A200020FF06C0382F38713830D9F4877F8160B5
:100A300021FF06C0282F28712831D1F4877E8161DB
:100A400094FD877E0895282F24712430F9F68B7F3A
:100A50008860DCCF282F2471243101F78B7E8861D8
:100A6000DDCF382F3171313019F78E7F8860E0CFBC
:100A7000282F2171213121F78E7E8861E1CF0895E1
:100A800008950C944005E82FF0E0E559FD4F808172
:100A90000895089580EA8A95F1F7089508951F93BF
:100AA000CF93DF93CDB7DEB762970FB6F894DEBF72
:100AB0000FBECDBF0E941E0780911201811130C070
:100AC000FE01379686E0DF011D928A95E9F786EFF1
:100AD000898387EF8A8381E38B8383E38C8382E33B
:100AE0008D8386E38E833697A6E0B1E0CE010D9626
:100AF00021912D938E179F07D9F726E0EEE2F1E0C2
:100B0000DE011D9601900D922A95E1F7FC01A0E00F
:100B1000B1E0CE01439621912D938E179F07D9F70F
:100B20008091120196E0811190E09093780286E026
:100B3000891B80937702A6E0B1E04CE051E061E0D0
:100B400070E08D91E82FE295EF70F0E011A18F70C9
:100B50009B0101C0220F8A95EAF7922F909591236D
:100B600091A382A1822B82A34A175B0751F7A0E0D1
:100B7000B1E046E051E061E070E08D91E82FE29550
:100B8000EF70F0E011A18F709B0101C0220F8A95D8
:100B9000EAF7922F9095912391A382A1822B82A3B1
:100BA0004A175B0751F7EFE5F2E0ABE6B2E08BE600
:100BB00092E011921D928E179F07D9F786E00E944E
:100BC000C9060E94CB0262960FB6F894DEBF0FBE34
:100BD000CDBFDF91CF911F910C9428070E94000791
:100BE000882309F18091770290E085599D4F0E94FA
:100BF0003B07811115C08091A0018F5F8093A001F8
:100C0000863060F0E0917702F0E0E559FD4F90E02A
:100C100080E01192019686309105D9F70C94D302A9
:100C20001092A001FBCF8091780290E085599D4FF2
:100C30000E9454070C944E059F92AF92BF92CF92A0
:100C4000DF92EF92FF920F931F93CF93DF9306E013
:100C500011E08FE5E82E82E0F82E9CE0C92E91E0AD
:100C6000D92E912CC1E0D0E0F80181918F01E82FBD
:100C7000E295EF70F0E091A18F709E0101C0220F0C
:100C80008A95EAF7892F822B81A3F80192915F015F
:100C9000E92FE295EF70F0E022A19F70AE0102C053
:100CA000440F551F9A95E2F7CA018095822382A3CB
:100CB0000E944A05E0E0F1E050E040E020E03191A0
:100CC000A32FA295AF70B0E090968C9190E03F700A
:100CD00002C0959587953A95E2F780FD56C08C2F16
:100CE000042E01C0880F0A94EAF7282B4F5F5F4F4C
:100CF0004630510521F7F5019081E92FE295EF701B
:100D0000F0E031A19F70AE0102C0440F551F9A95CB
:100D1000E2F7CA018095832381A3F5018081E82F42
:100D2000E295EF70F0E092A18F70AE0101C0440F28
:100D30008A95EAF7892F842B82A3F70180812817EF
:100D400031F1208381E0982AFFEFEF1AFF0AC016E5
:100D5000D10609F089CF6091780270E065597D4F26
:100D6000292D46E08FE592E00E94CA060E94EE051A
:100D7000892DDF91CF911F910F91FF90EF90DF9020
:100D8000CF90BF90AF909F90089580E0AECF80E06D
:100D9000DACF0895FF920F931F93CF93DF93F82E2E
:100DA000092F162FD72FC42F222349F081E08093DB
:100DB000A3010E9458179093A2018093A1018091F2
:100DC000A3018823A1F08091A1019091A2010E942A
:100DD0006417069760F0EF2DF02FA12FBD2FCE0FD7
:100DE000DF2FD11DEC17FD0741F41092A301DF9115
:100DF000CF911F910F91FF90089581918D93F2CF24
:100E00008091A401811111C08091D80080618093EC
:100E1000D8008AE18A95F1F700C09091D900892F16
:100E2000817090FF82E08093A40181E09091A40101
:100E3000913009F080E008950C9400070E941C078F
:100E4000809312010E94000781110C942F070895CE
:100E50000E940007811102C00C943507089561E0DB
:100E600070E083E191E00C94BD0961E070E083E102
:100E700091E00C94C409CF93DF93D82FC92F0E941F
:100E80005E0A009779F4ED2FFC2FDC01AA55BE4FC6
:100E90002C912193019686309105B9F781E0DF917D
:100EA000CF91089580E0FBCF30E020E0FC0141913C
:100EB000CF01F901EA55FE4F40832F5F3F4F2630A7
:100EC0003105A1F708950F931F93CF93DF93C62F9A
:100ED000D42F022FFC0182818823C9F06093AE01D8
:100EE0000E9458179093AD018093AC0180E28C0F63
:100EF000883008F050C0C77081E001C0880FCA95E3
:100F0000EAF7DF91CF911F910F910C94E50C1091AE
:100F1000AE01161335C08091AC019091AD010E94D5
:100F20006417883C910560F5C0E2CD0F1D17B9F03C
:100F300080E2810F883040F4177081E001C0880F93
:100F40001A95EAF70E94EC0CC83048F481E09D2F16
:100F5000977001C0880F9A95EAF70E94E50C802FE0
:100F60000E94D20CC830B8F4D77081E001C0880F5D
:100F7000DA95EAF7DF91CF911F910F910C94EC0C69
:100F800080E28C0F883038F4C77081E001C0880F90
:100F9000CA95EAF7EFCFDF91CF911F910F91089596
:100FA0009C01CB01233F4CE5340731F190F4283DFF
:100FB000FCE53F07E9F0293D4CE5340769F1273DA1
:100FC0003C4579F426E241EE61EE0E94630780E041
:100FD0000895253FFCE53F07B9F090F0263F3C45DA
:100FE000B9F0FC0182818823D1F01092AE010895FE
:100FF00027E245EE65EEE9CF26E241EE60EEE5CF71
:1010000027E245EE64EEE1CF26E241EE62EEDDCF6F
:1010100027E245EE66EED9CF28E241E0EBCF81E052
:101020000895CF93DF93EC01FB018281882309F4BB
:1010300019C1C230FCE5DF07C0F1C6319CE5D90714
:1010400030F09E012A5F3C452930310570F50E9441
:10105000F01590937E0280937D02C031ECE5DE07AF
:1010600009F4CFC008F05BC0C8308CE5D80709F49C
:10107000B6C088F5C430ECE5DE0709F4A8C0C0F4BA
:10108000C2308CE5D80709F49CC080917D02826053
:10109000C330DC4509F498C080917D0290917E02B6
:1010A0000E94FE150E94700F80E0DF91CF9108959D
:1010B00080917D028061C630ECE5DE0709F484C0D2
:1010C00080917D028860C730DC4508F47DC0809146
:1010D0007D02806279C0CC308CE5D80709F489C0E4
:1010E00070F480917D028C60CA30ECE5DE0709F473
:1010F0006BC008F478C080917D028E7F65C0CE30D1
:101100008CE5D80709F479C080917D028B7FCF30C0
:10111000DC4508F459C080917D028F7E55C0CB3FDD
:10112000ECE5DE0709F457C030F5C3318CE5D8078C
:1011300009F46FC078F4C131ECE5DE0709F465C04D
:10114000C231DC4509F0A8CF0E94700F80917D026A
:101150008F773AC0C5318CE5D80709F462C008F42E
:1011600076C080917E028160CA3FDC4509F094CF51
:1011700080937E0291CFCF3FFCE5DF0709F44DC09D
:1011800088F480917E028D7FCD3F9CE5D90781F365
:1011900080917E028E7FCE3FDC4550F380917E02AF
:1011A0008360E6CFC130FDE5DF0709F459C008F4DC
:1011B00044C080E0C230DD4509F06ECF0E947C164D
:1011C0006BCF80917D02816080937D0265CF80919D
:1011D0007D028460F9CF80917E028260C9CF8091C8
:1011E0007D028064F1CF0E94700F80917D02806843
:1011F000EBCF80917D028D7FE7CF80917D02877F4D
:10120000E3CF80917D028F7DDFCF80917D028F7B48
:10121000DBCF80917D02837FD7CF80917E028C7F50
:10122000A7CF80917D0282FB992790F921E0922738
:1012300090FB82F990FB83F9C7CF80917E02982FB3
:10124000909591708E7F892B90FB81F991CF0E94B0
:10125000700F90917D02892F97FB87F98058B4CF4A
:1012600081E0ACCF81E021CFCF93DF93EB018631DA
:101270009C4511F50E942E159A81992399F08A7A3E
:1012800091E009F490E09093AF01811109C089E2E7
:101290000E9409150E947A1580E0DF91CF91089590
:1012A00085E3F6CF8091AF01811104C089E20E94ED
:1012B0001015F0CF85E3FBCF81E0EFCF8EE1489BA7
:1012C00002C08150E1F7489BFECF0895589880E214
:1012D0008A95F1F7589A0895FC013BE03A95F1F7A9
:1012E00098E020E080E031E040E14A95F1F7880F96
:1012F000489B02C08160232742E04A95F1F7000035
:1013000040E14A95F1F7915079F790E19A95F1F71C
:1013100099B132E03A95F1F7000040E14A95F1F7D2
:10132000917092272081920F90830895EF92FF92FF
:101330000F931F93CF93DF930F92CDB7DEB7198230
:101340008C017C01E60EF11C0E151F0561F481E095
:101350009981911180E00F90DF91CF911F910F91B2
:10136000FF90EF9008950E945E09CE0101960E94C1
:101370006C09F80181938F01E7CF9093B1018093BD
:10138000B001509A589A08959093B1018093B0019A
:101390005098589AE89AE9E6F0E080818C7F808343
:1013A00008956150770B91E001C0990F6A95EAF7B3
:1013B00020E031E0911108C0222391F0589A80E298
:1013C0008A95F1F758980895492F482339F0589A8B
:1013D000232740E24A95F1F79695ECCF5898F9CF3C
:1013E0005898EDCFFF920F931F93CF93DF93EC01AB
:1013F0008C01060F111DC017D10731F4DF91CF9179
:101400001F910F91FF900895F9900E94660968E07E
:101410008F2D0E94D109EFCF1F920F920FB60F921E
:1014200011242F933F934F935F936F937F938F93E9
:101430009F93AF93BF93CF93DF93EF93FF9358980E
:10144000509AC091B001D091B1016D81662321F015
:101450008E819F810E94F2090E94660980E18A952F
:10146000F1F758985098589A80E18A95F1F76A8177
:10147000662309F18B819C810E949609E881F9819C
:10148000882311F088E001C082E080830E945E0919
:10149000FF91EF91DF91CF91BF91AF919F918F918C
:1014A0007F916F915F914F913F912F910F900FBE60
:1014B0000F901F901895E881F981E4CFCF93DF93C7
:1014C000C091B001D091B101F894509A589885E03C
:1014D0008A95F1F700005098589A80E28A95F1F7C2
:1014E000489B0CC0509A589AE881F98181E080832A
:1014F000789481E090E0DF91CF9108956D8166232B
:1015000081F08E819F810E94960981110AC0509AB4
:10151000589AE881F98182E08083789482E090E0B3
:10152000EACF0E945E0980E28A95F1F75898509AB6
:1015300080E18A95F1F76A81662321F08B819C8195
:101540000E94F2090E946609E881F981108278946C
:1015500090E080E0D0CF9093B7018093B6010895DA
:10156000E091B601F091B701309721F00190F08140
:10157000E02D099480E00895E091B601F091B70163
:10158000309721F00280F381E02D09940895E091D5
:10159000B601F091B701309739F022E0DC012C93CD
:1015A0000480F581E02D099408952091B4013091D3
:1015B000B5012817390771F09093B5018093B401F4
:1015C000E091B601F091B701309721F00680F781E4
:1015D000E02D099408952091B2013091B3012817AC
:1015E000390771F09093B3018093B201E091B60195
:1015F000F091B701309721F00084F185E02D099436
:10160000089585B7806885BF85B7806885BF0895D0
:10161000089508950C94080B08950C940C0B0E94E7
:10162000010B0E94090B0C940A0B0C9400070E94FA
:101630004F170E944F050E94A8170C940D0BBF92E4
:10164000CF92DF92EF92FF920F931F93CF93DF938E
:10165000CDB7DEB72A970FB6F894DEBF0FBECDBF69
:101660000E941C060E94150B882309F45EC089EBBA
:10167000C82E81E0D82E10E000E0B02E802F0E940E
:101680004305E82EF601F1906F01F81609F447C002
:101690008091400281FD0E9449059F2D9E2580E09A
:1016A000FF24F394292F2F21B1F18E83BF82EF20E5
:1016B00081E009F480E088870E9458178160782FC4
:1016C0009A8789874E815F8168858A850E94B60BDB
:1016D000F801E754FE4F8081F826F0820E94351908
:1016E0000E94B00A9091B801891781F10E94B00A56
:1016F0008093B8012A960FB6F894DEBF0FBECDBF17
:10170000DF91CF911F910F91FF90EF90DF90CF90DD
:10171000BF900C94DC028F5FFF0C863019F60F5FD0
:101720001F4F0C30110509F0A8CF8FEF89838A83F2
:101730001B820E9458178160782F9D838C8349817A
:101740005A816B818D810E94B60BC8CF2A960FB645
:10175000F894DEBF0FBECDBFDF91CF911F910F91E7
:10176000FF90EF90DF90CF90BF900895CF93DF93DD
:10177000CDB7DEB72B970FB6F894DEBF0FBECDBF47
:101780004F83588769877A878B871E821D8285E001
:10179000FE013796DE01119601900D928A95E1F7D0
:1017A00049815A816B817C818D819E812B960FB6F8
:1017B000F894DEBF0FBECDBFDF91CF910C94221203
:1017C000FC01808191810C94DB14CF93C82F882376
:1017D00009F490C08238C1F40E94B00A81FD8AC029
:1017E00089E30E9409150E947A152FEF81EE94E09B
:1017F000215080409040E1F700C0000089E30E9442
:101800001015CF910C947A158338A1F40E94B00A78
:1018100080FD70C083E50E9409150E947A152FEFA4
:1018200081EE94E0215080409040E1F700C000003C
:1018300083E5E5CF8438A1F40E94B00A82FD5AC046
:1018400087E40E9409150E947A152FEF81EE94E03B
:10185000215080409040E1F700C0000087E4CFCFE6
:101860008CEF8C0F813AB8F48C2F0E94C61B81112B
:1018700041C06C2F80911B0190911C010E94931616
:10188000882329F08C2F0E9410150E947A158C2F26
:101890000E940915B6CF80E28C0F883048F4C770DB
:1018A00081E001C0880FCA95EAF70E943115A9CFDF
:1018B000EBE5EC0FE33040F4F0E0ED56FE4F8081B5
:1018C00090E0CF910C94D50AE8E5EC0FE73150F4A5
:1018D000F0E0EE0FFF1FEB59FE4F80819181CF9119
:1018E0000C94EB0AC03F30F08C2F0E944318CF912C
:1018F0000C942A19CF910895882309F452C0823894
:1019000071F40E94B00A81FF4CC089E30E9409155E
:101910000E947A1589E30E9410150C947A15833879
:1019200059F40E94B00A80FF3CC083E50E9409156B
:101930000E947A1583E5EFCF843859F40E94B00AEB
:1019400082FF2FC087E40E9409150E947A1587E460
:10195000E2CF9CEF980F913AF0F290E2980F983016
:1019600050F4877091E001C0990F8A95EAF7892FAA
:101970000E943715D2CF9BE5980F933020F490E06A
:1019800080E00C94D50A98E5980F973120F490E008
:1019900080E00C94EB0A803F20F00E94AB180C947E
:1019A0002A190895CF93C82F0E94E50BC93349F433
:1019B0002FEF87EE93E0215080409040E1F700C088
:1019C00000008C2FCF910C947C0C882321F00E9476
:1019D00031150C947A150895882321F00E9437154B
:1019E0000C947A150895BF92CF92DF92EF92FF92F6
:1019F0000F931F93CF93DF937C01D62FC72FFC014A
:101A0000058102950F70128111110E944E150E94DE
:101A10002715C82E882391F01123D1F08C2F807FB9
:101A2000803421F080E28D0F883090F082E00E94B7
:101A3000C5150E94271591E0C82EC926BC2EB29468
:101A40009FE0B922EB2DF0E0EC56FC4D0C943623D0
:101A5000C12CF4CF0C2F0F70C07F11F00295007FC6
:101A60001123A9F0002359F080E28D0F883010F087
:101A7000D11109C0802F0E9431150E947A158D2F37
:101A80000E94E50B14C0802F0E944115F6CF8D2FC8
:101A90000E947C0C002359F080E28D0F883010F0FA
:101AA000D1112CC0802F0E9437150E947A152B2D42
:101AB0002850330B2430310520F40E94B00A0E94D4
:101AC000DC02CC2009F4ADC10E94231580FDA9C120
:101AD000F70112820E941D150E94A613C7010E94E1
:101AE000320F0E941D15DF91CF911F910F91FF9032
:101AF000EF90DF90CF90BF900C94C713802F0E947F
:101B00004715D3CFFC2FFF70DF2EC07FC03219F0F6
:101B1000D29480EFD822DD23E1F0D130C1F111233E
:101B200009F440C00023C1F120E0F7014081518158
:101B30006281738184810E948402B7010E946C02D9
:101B400081119DCFF701858180FF99CF8F708583AB
:101B500023C0112381F0011106C00E9461158D2957
:101B60000E94E50CA4CF0130C1F70E9461158D29B8
:101B70000E9467159CCF011106C00E9470158D2D23
:101B80000E94EC0C94CF013009F491CFF6CF1123D1
:101B900029F0063008F08BCF8D2DE2CF053008F00C
:101BA00086CFEDCF002359F3D93349F4FFEF27EE69
:101BB00033E0F15020403040E1F700C000008D2FAD
:101BC0000E947C0C74CF8C2F86958695837069F06B
:101BD000813009F06CCF8D2F9C2F9370111102C0B2
:101BE00090E080E00E94EB0A62CF8D2F9C2F9370D3
:101BF000111102C090E080E00E94D50A58CF8D2FCD
:101C0000112329F00E9443180E942A1950CF0E94E4
:101C1000AB18FACF8C2F837009F041C0111147CF58
:101C20004D2F429546954770440F440F0D2F0F706E
:101C300010E030E020E0042E04C0000F111F221F2E
:101C4000331F0A94D2F760E070E0CB01D4FF0FC0DD
:101C50006FE070E080E090E004C0660F771F881F9F
:101C6000991F4A95D2F76095709580959095C69585
:101C7000C695C370602B712B822B932BC23049F019
:101C800058F4C13019F00E94581311CF0E94461326
:101C90000ECF0E946A130BCF0E94441308CF869583
:101CA000112311F08C2F8170882309F400CF4D2F60
:101CB000429546954770440F440F0D2F0F7010E06A
:101CC00030E020E0042E04C0000F111F221F331F3C
:101CD0000A94D2F760E070E0CB01D4FF0FC06FE050
:101CE00070E080E090E004C0660F771F881F991FA6
:101CF0004A95D2F76095709580959095C695C69552
:101D0000C370602B712B822B932BC23049F058F497
:101D1000C13019F00E941D14CACE0E940B14C7CE08
:101D20000E942F14C4CE0E948013C1CECF70112305
:101D300029F08C2F0E94A6138D2F12CF8D2F0E9479
:101D4000EC0C8C2F0E94C713B2CED23F89F160F405
:101D5000D03FC9F0D13F29F1112309F442C001114C
:101D60008ECE8C2F8F7121C0D33F39F1D43FA1F794
:101D7000112369F1CF718C2F0E94A61363E08C2F81
:101D80000E94B01594CE112341F0053008F08FCE9B
:101D90008C2F8F710E94EA138ACE063008F087CE0E
:101DA000F7CF8C2F8F71112369F20E94A6137FCE7B
:101DB0008C2F8F711123C9F3C5CF112329F08C2FDC
:101DC0008F710E94911373CE0E948C1370CE81E0AC
:101DD0000E94C515023008F46ACE82E00E94C51543
:101DE00066CE002359F0D93309F0E9CE8FEF97EE94
:101DF000E3E081509040E040E1F7DFCE8C2F8F711F
:101E0000A1CF4C2F4F706D2FC7010E9430030E944D
:101E1000BC124DCE4C2F4F706D2FC7010E94330363
:101E200046CEDF91CF911F910F91FF90EF90DF9001
:101E3000CF90BF9008950F931F93CF93DF93EC0142
:101E4000688179818A810E94E5148C010E94411485
:101E50000E944313B801CE01DF91CF911F910F91E2
:101E60000C94F30CCF93DF93EC018B819C81892B35
:101E700029F08881998189238F3F59F4DF91CF918F
:101E80000895CE010E941B0FCE01DF91CF910C94DB
:101E9000C002CE010E94F4028111F3CF0E942715E7
:101EA000882361F38A81882349F382E0DF91CF910F
:101EB0000C94C5150E944E150E945E150E947A155D
:101EC0000E944F1A0E942A1990E080E00E94D50AD1
:101ED00090E080E00C94EB0A0E9417150C945A0FC6
:101EE0000E943E150C946C0FE92FE295EF70E250C2
:101EF000EE3070F4F0E0EC55FC4D0C943623803F4E
:101F000019F020F4883E20F481E00895843FE1F345
:101F100080E00895883EC0F3813FD1F7F5CF93FB71
:101F2000882780F908950E94DB140C94740FCF93D6
:101F3000DF9300D000D00F92CDB7DEB70F900F9097
:101F40000F900F900F90DF91CF910895CF93DF9373
:101F500000D000D000D0CDB7DEB726960FB6F894EB
:101F6000DEBF0FBECDBFDF91CF9108951F93CF93FA
:101F7000DF93C091C60116E08091C7018C1304C0A5
:101F8000DF91CF911F910895D0E01C9FF0011D9F1C
:101F9000F00D1124E853FE4F40815181628173811D
:101FA000848195810E94A60F2196C770E5CF40914C
:101FB000F8015091F9016091FA017091FB01809153
:101FC000FC019091FD010C94A60F2091C601909107
:101FD000C70156E0291302C080E0089530E0529F07
:101FE000F001539FF00D1124E853FE4F71817613D9
:101FF00006C07081781303C07281741304C02F5F10
:102000003F4F2770E7CF81E008951F93CF93DF9371
:102010008091FD01807FA9F48091FA01882389F0E5
:102020008091C601C091C7016091F8017091F901DA
:10203000A091FB01B091FC01D62FD72316E0C81365
:1020400004C0DF91CF911F91089590E0109711F097
:10205000DF3F19F401968770F2CF189F9001199F06
:10206000300D1124F901E853FE4F41814713F2CF9F
:1020700040814613EFCF42814111ECCF438154811F
:102080004A1B5B0B483C510528F78091FD018F707E
:1020900080618093FD01F901E353FE4F80818F70D1
:1020A0008061808388EF91E00E94320FDF91CF91B1
:1020B0001F910C94B60F8F929F92AF92BF92CF92C6
:1020C000DF92EF92FF920F931F93CF93DF93CDB7E1
:1020D000DEB761970FB6F894DEBF0FBECDBF8C019F
:1020E00085E0F801DE011D9601900D928A95E1F7D9
:1020F000D801EC901196FC9011971296CC90129703
:1021000088EFA82E81E0B82E4091FB015091FC0190
:102110004115510509F474C19091F8012091F9011C
:10212000892F82238F3F09F46BC113968D909C9069
:102130001497D090FA01F401E41BF50BDD2009F4AB
:102140000AC18091FD01382F307FE83CF10508F08D
:10215000C1C0311189C0DC2C2F1126C09E1124C0B2
:10216000C11022C08F7080618093FD010E94D70F43
:10217000C5010E94320F8091FD01D80115968C9304
:102180008D2D61960FB6F894DEBF0FBECDBFDF91E7
:10219000CF911F910F91FF90EF90DF90CF90BF9064
:1021A000AF909F908F9008958114910429F08F2D06
:1021B0008E218F3F09F043C180E080FF15C04C2D78
:1021C0006F2D8E2D0E94E50F882371F088EF91E02E
:1021D0000E94320F86E0E8EFF1E0DF011D928A9560
:1021E000E9F70E94D70F3EC0892829F08F2D8E2154
:1021F0008F3F09F021C180E0B82FB170AB2E80FF76
:1022000029C04C2D6F2D8E2D0E94E50FB82E811107
:1022100021C0ED86FE868D859E850E94DB14292FC8
:1022200022952F70223050F0243078F49F7051F0B6
:10223000F8019581907F31F4DB2CA2CF9F7011F0D3
:102240008823D1F3805E8830B8F3C8010E94320F32
:10225000BA2CF2CFCC2009F493CF8091FD0181609C
:102260008093FD01D12C8CCF2F1105C09E1103C08E
:10227000CC2009F48DC0ED86FE868D859E850E945A
:10228000930F882319F1CC2009F18091FD01803250
:1022900070F02091F8013091F90138872F83198669
:1022A0009B868A868C87CE0107960E94320F86E035
:1022B000F801A8EFB1E001900D928A95E1F70E9434
:1022C00005100E94D70FDD24D3945ACFC8010E9475
:1022D000320FF9CF311112C0782D998A888AA7015F
:1022E0006C2D89890E94970F88EF91E00E94320F30
:1022F00086E0F50111928A95E9F773CF2F110FC08F
:102300009E110DC0C1100BC015968C93C8010E9480
:10231000320F86E0F50111928A95E9F731CFED860B
:10232000FE868D859E850E94930F882379F2CC20AE
:1023300069F28091FD01803208F4B9CF2091F80153
:102340003091F9013A8329831B829D828C828E838E
:10235000CE010196AACFE83CF10508F043C0DC2C81
:10236000CC2009F4B3CF2F112CC09E112AC080912C
:10237000FD0180FD1DC0982F907FD1F015968C93A4
:102380001597903F39F0982F907F905F8F70892B31
:1023900015968C93C8010E94320F86E0F801A8EFD1
:1023A000B1E001900D928A95E1F70E94D70FE8CE37
:1023B00086E0F801A8EFB1E001900D928A95E1F76F
:1023C000DFCEED86FE868D859E850E94930F81115E
:1023D0006ECF8091FD0181608093FD01C8010E9454
:1023E000320FCECE782D998A888AA7016C2D8989E3
:1023F0000E94970F86E0F50111928A95E9F7D5CFF3
:10240000CC2009F463CFED86FE868D859E850E94E3
:10241000930FD82E882309F459CF86E0F801A8EF4E
:10242000B1E001900D928A95E1F788EF91E00E946A
:10243000E00B0E940510B9CF81E08C25DDCE81E054
:102440008C25BBCE1F93CF93DF93CDB7DEB72C97F0
:102450000FB6F894DEBF0FBECDBF4F835887698794
:102460007A878B879C87CE0107960E945B10882312
:1024700069F08A859B85892B39F04F815885842F97
:1024800085238F3F09F071C016E05FC086E0FE0132
:102490003796DE01119601900D928A95E1F78A85B3
:1024A0009B85892B89F38F81988589238F3F61F3E1
:1024B0002091C70130E0C9010196877099274091AA
:1024C000C6014817190671F40E94700F1092C701D7
:1024D0001092C60186E0E8EFF1E0DF011D928A95D7
:1024E000E9F7D2CF96E0929FD001939FB00D1124CF
:1024F000A853BE4FFE01319601900D929A95E1F7D7
:102500008093C7010E94B60FBFCF819FC0011124E5
:1025100088539E4F0E945B108823E9F0E091C6012A
:102520001E9FF0011124E853FE4F408151816281CA
:102530007381848195810E94A60F8091C60190E0ED
:102540000196877099278093C6018091C60190916A
:10255000C7018913DACF2C960FB6F894DEBF0FBEF1
:10256000CDBFDF91CF911F91089569857A858B85C5
:102570009C850E94A60F88CFEF92FF920F931F9326
:10258000CF93DF938C01892B81F0F12CEE24E3941F
:10259000E8012196F8018491843770F4843008F0C2
:1025A0005FC08130B1F08230A1F1DF91CF911F91F6
:1025B0000F91FF90EF900895853709F44CC008F40F
:1025C0003DC09CE7980F903780F78F770E947C0C76
:1025D00049C00E5F1F4FFE01849190E2980F983022
:1025E00060F48770FE2D01C0FF0F8A95EAF78F2FE8
:1025F0000E9451150E947A1502C00E94E50B8F2D92
:10260000815030F2EFE9FFE03197F1F700C00000B0
:10261000F7CF0E5F1F4FFE01849190E2980F983024
:1026200050F48770FE2D01C0FF0F8A95EAF78F2FB7
:102630000E945715DFCF0E947C0CE1CF0E5F1F4F29
:10264000FE01C491C150D8F28FE99FE00197F1F7E4
:1026500000C00000F7CF0E5F1F4FFE01F490CFCFF8
:102660000E94E50B8E01CBCF08950C9434130E9489
:10267000351360932F027093300280933102909350
:1026800032020C945A0F08950C9437130F931F9332
:1026900000912F02109130022091310230913202CC
:1026A000602B712B822B932B1F910F910C9437135E
:1026B0000F931F9300912F0210913002209131024D
:1026C0003091320260237123822393231F910F9153
:1026D0000C9437130F931F9300912F021091300227
:1026E000209131023091320260277127822793278F
:1026F0001F910F910C9437130C9434130C947C138A
:102700000E947E1360932B0270932C0280932D0203
:1027100090932E020C945A0F60E070E0CB010C9461
:1027200080130F931F9341E050E060E070E08A0156
:102730009B0104C0000F111F221F331F8A95D2F77F
:10274000C901B8011F910F910C9480130F931F932F
:1027500041E050E060E070E004C0440F551F661F88
:10276000771F8A95D2F780912B0290912C02A0912D
:102770002D02B0912E028A019B01082B192B2A2BC6
:102780003B2BC901B8011F910F910C9480130F933B
:102790001F9341E050E060E070E004C0440F551F1B
:1027A000661F771F8A95D2F7CB01BA0160957095A5
:1027B0008095909500912B0210912C0220912D0272
:1027C00030912E0260237123822393231F910F9156
:1027D0000C9480130F931F9341E050E060E070E091
:1027E00004C0440F551F661F771F8A95D2F780914A
:1027F0002B0290912C02A0912D02B0912E028A0101
:102800009B01082719272A273B27C901B8011F91D7
:102810000F910C9480130F931F9300912B02109132
:102820002C0220912D0230912E02602B712B822BD5
:10283000932B1F910F910C9480130F931F93009172
:102840002B0210912C0220912D0230912E02602338
:102850007123822393231F910F910C9480130F9364
:102860001F9300912B0210912C0220912D02309188
:102870002E0260277127822793271F910F910C94B6
:1028800080130895E92FEE0FE90FEE0F8E0F982FAA
:10289000977041E001C0440F9A95EAF786958695B6
:1028A000869595E0899FF0011124E250FE4F30E0BB
:1028B00020E070E05191DF011197CB01022E02C0A0
:1028C000969587950A94E2F78170819585278423F0
:1028D00085278C932F5F3F4F2530310559F7089599
:1028E000E92FEE0FE90FEE0F8E0F982F9770869558
:1028F0008695869525E0829FF0011124E250FE4FD7
:1029000050E040E080E0219130E0092E02C0369591
:1029100027950A94E2F721703327042E01C0220F75
:102920000A94EAF7822B4F5F5F4F4530510559F704
:102930000895BF92CF92DF92EF92FF920F931F9371
:10294000CF93DF938C01C0902B02D0902C02E090AB
:102950002D02F0902E0280912F0290913002A091D2
:102960003102B0913202C82AD92AEA2AFB2ACFE1E1
:10297000D0E0BC2ED701C6010C2E04C0B695A79599
:10298000979587950A94D2F780FD0EC0219788F716
:10299000B12C8B2DDF91CF911F910F91FF90EF9074
:1029A000DF90CF90BF900895B8018C2F0E94500304
:1029B000019761F3EECFCF93DF93EC010E9499145E
:1029C000BE01DF91CF910C9450031F93CF93DF93FF
:1029D000EB019091C501992331F0CB01DF91CF91AB
:1029E0001F910C94DB14882379F0CB010E94991479
:1029F000182F682FCE010E944214BE01812FDF9153
:102A0000CF911F910C945003CB010E947014182F8A
:102A1000F4CF682F80911B0190911C010C94C91672
:102A2000682F80911B0190911C010C94CB16809112
:102A30001B0190911C010C94CD1680913302859559
:102A400085958595089580913302877008959091BA
:102A50003302977081E009F480E0089580913F028D
:102A6000089590913F02892B80933F0208958095AD
:102A700090913F02982390933F02089510923F0255
:102A8000089590913E02892B80933E02089580958F
:102A900090913E02982390933E02089510923E0238
:102AA000089590913D02892B80933D020895809571
:102AB00090913D02982390933D02089510923D021B
:102AC000089580913402089508950C9464159091AE
:102AD0003402981721F0809334020C946515089500
:102AE00080913402882329F01092340280E00C9403
:102AF00065150895E0911B01F0911C0180913F0242
:102B00008083E0911B01F0911C01808190913E0235
:102B1000892B8083E0911B01F0911C0180819091B1
:102B20003D02892B808390913402992381F0E091BA
:102B30001B01F0911C018081892B808380911B01F6
:102B400090911C010E94811681110E947015809144
:102B50001B0190911C010C94BC0A08950C94AD15B6
:102B600098E0899F90011124622B609333020E94A8
:102B7000A613809133028595859585950C94AE15A5
:102B80001092330280E00C94AE1590913302809540
:102B9000892380933302282F277071F4282F082E61
:102BA000000C330B9217130639F0859585958595A2
:102BB0000E94C7130C94C015089590E080E00E9415
:102BC000582321E08C3E9E4F09F020E0822F08958B
:102BD00082E090E00C94502383E090E00C9450232A
:102BE000CF9384E090E00E945023C82F81E290E0D0
:102BF0000E945023982F8C2FCF910895CF93C92FE7
:102C0000682F84E090E00E945E236C2F81E290E0C8
:102C1000CF910C945E23AB01BC018FE090E00C944B
:102C20007023AB01BC0183E190E00C94702360E061
:102C300070E0CB010C94111660E070E0CB010E94B3
:102C40000B160C9417166CEE7EEF90E080E00E945D
:102C50007C2360E082E090E00E945E2360E083E0FD
:102C600090E00E945E2310922F0210923002109288
:102C700031021092320260E084E090E00E945E2314
:102C800060E081E290E00E945E2360E085E090E0F9
:102C90000E945E2360E086E090E00E945E236FEF7A
:102CA00087E090E00E945E2340E050E0BA0188E0B7
:102CB00090E00E94702360E08DE090E00E945E232F
:102CC00040E050E0BA0188E190E00E94702360E0AB
:102CD00087E190E00E945E2340E050E0BA018CE181
:102CE00090E00E94702360E080E290E00E945E230A
:102CF0000C941C160C942316682F8EE090E00C9414
:102D00005E239C012E5F3F4FAC01485F5F4F80E028
:102D10002417350709F40895F90191919F0199232A
:102D2000B9F38F5FF5CF662349F0FC013296089620
:102D30002191261729F0E817F907D1F780E00895C7
:102D400081E008959C01FC0132969FEF80E0419163
:102D5000461751F09F3F19F4411101C0982F8F5F22
:102D60008630A9F79F3F09F40895290F311D97FD7B
:102D70003A95F90162830895FC01329608962191F3
:102D8000261303C0DF0111971C92E817F907B9F762
:102D900008950C94A2160C94BC16029626E0FC0131
:102DA00011922A95E9F70895089508950C94D5167F
:102DB0000E94D61680918302843049F1109241021C
:102DC00088E190E020E40FB6F894A8958093600025
:102DD0000FBE2093600080E00E94DC020E94D616A5
:102DE00083B7817F846083BF83B7816083BF78941A
:102DF000889583B78E7F83BF0FB6F894A89580918E
:102E00006000886180936000109260000FBE08959A
:102E10000895CF930E94D4160E941C060E940817A2
:102E2000C0E08C2F0E944305811105C0CF5FCC30DC
:102E3000C1F7CF91089581E0FCCF08950C941D1740
:102E40000E94700F0E94B00A0E94DC020C941E17B0
:102E50001F921FB61F9211248F939F93AF93BF931E
:102E600080914102811113C08091790290917A0280
:102E7000A0917B02B0917C024196A11DB11D80936F
:102E8000790290937A02A0937B02B0937C02BF9167
:102E9000AF919F918F911F901FBE1F90189582E058
:102EA00084BD93E095BD9AEF97BD80936E00089521
:102EB0002FB7F8948091790290917A02A0917B02C9
:102EC000B0917C022FBF08959C014FB7F894809178
:102ED000790290917A02A0917B02B0917C024FBF5F
:102EE000821B930B089578941F921FB61F92112492
:102EF0008F939F93AF93BF938091790290917A02C1
:102F0000A0917B02B0917C020196A11DB11D80931E
:102F1000790290937A02A0937B02B0937C02BF91D6
:102F2000AF919F918F911F901FBE1F90189587E7BB
:102F300097E7909301088093000888E19AE00FB624
:102F4000F894A895809360000FBE90936000FFCF27
:102F50000E94DD15811102C00E947A160E94E815B8
:102F6000809340020E94F01590937E0280937D0230
:102F70000E94EC15682F70E090E080E00C94441300
:102F800080914B0280FF12C06091210185E0689F13
:102F9000B001112475956795759567956038710531
:102FA000A8F561157105A1F1862F089581FF09C06B
:102FB0006091210185E0689FB001112475956795A6
:102FC000EDCF6091210182FD0AC080914A028823E1
:102FD000D1F09091200160912101891728F085E0BE
:102FE000689FB0011124DACF869FB001112485E0DB
:102FF000869F9001879F300D1124692F70E0C901D1
:103000000E942223CBCF65E070E0CECF8FE70895FA
:1030100081E0089580914B0280FF0CC060911E01F9
:1030200070E075956795759567956115710549F11E
:10303000862F089581FF06C060911E0170E075958E
:103040006795F3CF60911E0182FD0BC090914A02FB
:103050009923A1F060911D0180911E01961738F00F
:10306000682F70E06038710500F38FE70895899F3D
:10307000C001112470E00E942223F4CF61E070E0CF
:10308000D7CF81E00895803F31F40E94C017819529
:1030900080934F020895813F19F40E94C017F8CF22
:1030A000823F31F40E94C017819580934E020895AB
:1030B000833F19F40E94C017F8CF893F29F40E947A
:1030C0000A188093500208958A3F21F40E940A183A
:1030D0008195F7CF8B3F31F40E940A188195809338
:1030E000510208958C3F19F40E940A18F8CF843FCA
:1030F00031F480914D02816080934D020895853FA7
:1031000021F480914D028260F7CF863F21F48091B7
:103110004D028460F1CF873F21F480914D02886099
:10312000EBCF883F21F480914D028061E5CF8D3F48
:1031300031F480914B02816080934B0208958E3F61
:1031400021F480914B028260F7CF8F3FB9F78091D5
:103150004B028460F1CF90914E02803F41F4809108
:103160004F0287FD10924F02992371F00895813F1D
:1031700029F480914F021816ACF3F6CF823F81F408
:1031800097FFF2CF10924E0280914F029091500221
:10319000892B90915102892B49F710924A02089588
:1031A000833F19F4191674F3DFCF893F39F4809106
:1031B00050021816CCF610925002D6CF8A3F29F44E
:1031C0008091500287FFD0CFF6CF8B3F39F48091AA
:1031D000510287FFC9CF10925102C6CF8C3F29F40C
:1031E000809151021816BCF3BFCF843F31F4809117
:1031F0004D028E7F80934D02B7CF853F21F48091A1
:103200004D028D7FF7CF863F21F480914D028B7F59
:10321000F1CF873F21F480914D02877FEBCF883F2C
:1032200021F480914D028F7EE5CF8D3F31F4809166
:103230004B028E7F80934B0297CF8E3F21F480917B
:103240004B028D7FF7CF8F3F09F08ECF80914B02DD
:103250008B7FF0CF8CE492E00E94C70A0E9458173F
:1032600090934902809348020895CF93DF9300D052
:1032700000D000D0CDB7DEB786E0ECE4F2E0DE01AE
:10328000119601900D928A95E1F780914E029091EE
:103290004F02892B81F080914602909147020E9453
:1032A0006417AC0190914A02992331F18091220177
:1032B0008417150670F18091500290915102892B6C
:1032C00091F080914402909145020E946417AC01F4
:1032D00090914A02992309F478C080911F018417C4
:1032E000150608F480C026960FB6F894DEBF0FBE10
:1032F000CDBFDF91CF910895209143028AE0289FAE
:103300009001112424173507B0F69F5F90934A026D
:1033100002C09F3FD1F7109250021092510280914B
:103320004E02181624F40E94C01780934E0280911A
:103330004E0287FF05C00E94C017819580934E0200
:1033400080914F02181624F40E94C01780934F02F8
:1033500080914F0287FF05C00E94C017819580931E
:103360004F0230914E023323A1F020914F022223CD
:1033700081F045EB3403C00111249923F1F09093BF
:103380004E0245EB2403900111243323D1F03093F6
:103390004F020E942A19809148029091490290930D
:1033A00047028093460286E0FE013196ACE4B2E02B
:1033B00001900D928A95E1F77ECF81E080934E02D5
:1033C000E0CF81E080934F02E4CF209142028AE077
:1033D000289F900111242417350708F084CF9F5FA0
:1033E00090934A0202C09F3FD1F710924E02109272
:1033F0004F0280915002181624F40E940A188093FC
:1034000050028091500287FF05C00E940A188195E2
:103410008093500280915102181624F40E940A18D9
:10342000809351028091510287FF05C00E940A18C3
:10343000819580935102309150023323A1F0209165
:103440005102222381F045EB3403C001112499235A
:10345000F1F09093500245EB2403900111243323A3
:10346000D1F0309351020E942A1980914802909124
:103470004902909345028093440286E0FE01319612
:10348000ACE4B2E001900D928A95E1F72CCF81E097
:1034900080935002E0CF81E080935102E4CF86E038
:1034A000ECE4F2E0DF011D928A95E9F710924A02FE
:1034B00010924B020895833081F128F4813059F045
:1034C0008230D1F00895853009F449C0B8F18630D2
:1034D00009F456C0089580914302482F460F55279E
:1034E000551F4F3F510524F4680F60934302089520
:1034F0008FEF80934302089580912201482F460F59
:103500005527551F4F3F510524F4680F6093220142
:1035100008958FEF80932201089580912101482F13
:10352000460F5527551F4F3F510524F4680F6093F0
:10353000210108958FEF809321010895809120014A
:10354000482F460F5527551F4F3F510524F4680F4C
:103550006093200108958FEF80932001089580915A
:103560001E01482F460F5527551F4F3F510524F484
:10357000680F60931E0108958FEF80931E010895D8
:1035800080911D01482F460F5527551F4F3F51056C
:1035900024F4680F60931D0108958FEF80931D013F
:1035A0000895833011F128F4813049F0823091F090
:1035B0000895853081F120F18630C1F10895809120
:1035C0004302681720F4861B8093430208951092EB
:1035D0004302089580912201681720F4861B80938E
:1035E0002201089510922201089580912101681707
:1035F00020F4861B809321010895109221010895E3
:1036000080912001681720F4861B80932001089583
:1036100010922001089580911E01681720F4861BE6
:1036200080931E01089510921E01089580911D013E
:10363000681720F4861B80931D01089510921D01C8
:1036400008950F931F9341E050E060E070E08A011D
:103650009B0104C0000F111F221F331F8A95D2F750
:10366000C901B8010E9444131F910F910C94700F6F
:103670008B3109F461C040F58B3071F078F48630FD
:1036800009F443C020F4853059F180E00895873073
:1036900009F444C08830C9F781E00895803109F405
:1036A00059C068F48E3089F790914002892F8B7F42
:1036B00092FF84608093400282FD48C0EDCF863146
:1036C00059F3893149F3E1CF8A32E1F060F487326E
:1036D000A9F020F48E31C8F28D5111C08932A9F6BB
:1036E0000E94E502D9CF833438F48A33F0F585336C
:1036F00029F0883389F2C9CF833439F680E00E94FB
:10370000211BCACF0E947A16C7CF80914002807FCA
:103710008093400281E0809353020895909140028B
:10372000892F8E7F90FF81608093400280FDB4CF0F
:10373000817F80934002B0CF90914002892F8D7F8E
:1037400091FF82608093400281FFA6CF809140026A
:103750008160EFCF90914002892F877F93FF88602F
:103760008093400283FDF2CF97CF8953C8CF80E08A
:1037700008950C94B71B8E518A3030F4E82FF0E096
:10378000EA56FE4F8081089580E00895CF93C82FB8
:10379000809153028130B9F0882331F08230A1F159
:1037A0001092530280E00DC00E942E158232D1F794
:1037B0008C2F0E94B71B81111BC08C2F0E94381BBD
:1037C0008170CF9108950E942E15823289F38C2F3B
:1037D0000E94B91B81110AC0C43199F060F4CB304A
:1037E00029F0C03169F782E08093530281E0E8CF8D
:1037F00081E090E0E5CFC93221F0C833B9F380E031
:10380000DFCF10925302FBCFC93219F188F4C431D3
:1038100001F120F4C73081F181E0D3CF82EE8C0F2B
:103820008630D0F78C2F0E94BB1B80935202F4CFBE
:10383000CE3401F140F46AE0CB3471F7809152024A
:103840000E945B1AE9CFC13579F061E0C235B1F36E
:10385000E3CF80915202882319F010925202DCCFFC
:1038600081E080935302ADCF61E0809152020E94CB
:10387000D11AD2CF6AE0F9CF1092430284E180934B
:103880002201C09321018CE38093200188E0809382
:103890001E0188E280931D01BFCF80915C020895D4
:1038A000CF93DF9300D00F92CDB7DEB79091830214
:1038B000943019F589837B836A8382E08093E900E1
:1038C0008FEF9091E800815095FD06C095ED9A9597
:1038D000F1F700008111F5CF8091E80085FF0DC060
:1038E00050E040E063E070E0CE0101960E94911E3E
:1038F0008091E8008E778093E8000F900F900F90F2
:10390000DF91CF910895CF93DF93EC010E94741E55
:10391000823011F0843031F4BE0184E0DF91CF9128
:103920000C94501CDF91CF910895BC0183E00C945E
:10393000501CCF93DF93EC010E94741E823011F073
:103940008430F9F482E08093E9008FEF9091E800F1
:10395000815095FD06C095ED9A95F1F70000811113
:10396000F5CF8091E80085FF0CC050E040E066E0B4
:1039700070E0CE010E94911E8091E8008E778093C6
:10398000E800DF91CF910895CF93DF93EC010E947F
:10399000741E823011F0843039F581E08093E900A3
:1039A0008FEF9091E800815095FD06C095ED9A95B6
:1039B000F1F700008111F5CF8091E80085FF14C078
:1039C00050E040E068E070E0CE010E94911E8091DE
:1039D000E8008E778093E80088E0FE01A4E5B2E07D
:1039E00001900D928A95E1F7DF91CF910895809132
:1039F0008202811109C00E9421200E947E208091B4
:103A0000E20084608093E20008951092820208959B
:103A1000089508950C94201742E061EC81E00E9423
:103A20009D1F42E261EC82E00C949D1F8091850213
:103A3000833009F45FC030F48130C1F1823009F481
:103A40009BC008958A3009F487C08B3009F46DC09B
:103A5000893009F04EC080918402813209F049C05A
:103A60008091880290918902029708F042C080916B
:103A7000E800877F8093E8008091E80082FF35C0EE
:103A80009091F3008091F200029729F48091F10067
:103A90008B7F813021F48091F10080935C028091D2
:103AA000E8008B778093E8000C94D11F809184020A
:103AB000813AF9F48091E800877F8093E800809153
:103AC000880290918902892B61F468E084E592E094
:103AD00070E00E94E01E8091E8008B778093E80000
:103AE000089560E090E080E0F3CF8091830281113F
:103AF000C3CF089580918402813AD9F780918802DA
:103B000090918902892BA9F78091E800877F8093A3
:103B1000E8008091E80080FFFCCF80912D01809328
:103B2000F1008091E8008E77BDCF809184028132D0
:103B300001F78091880290918902892BD1F68091BA
:103B4000E800877F8093E8000E94D11F8091860261
:103B500080932D010C94700F80918402813249F67C
:103B60008091E800877F8093E8000E94D11F8091B8
:103B7000870280935D02089580918402813A09F062
:103B8000B8CF8091E800877F8093E8008091E800BB
:103B900080FFFCCF80915D02C2CF84B7877F84BF56
:103BA0000FB6F894A89580916000886180936000BA
:103BB000109260000FBE80E890E00FB6F8948093FA
:103BC0006100909361000FBE0E940F0B0E942120A4
:103BD0000E947E208091E20084608093E2007894CD
:103BE0000E9407230E94170B83E291E00E94AB0A18
:103BF00080918302853019F00E941F0BF9CF0E943B
:103C0000D81680918102882399F30E94091788238E
:103C100079F30E947B1EECCF0C940E1E292F3327C4
:103C20002330310519F168F42130310509F44AC017
:103C30002230310509F44BC090E080E030E020E014
:103C400028C02132310579F122323105A9F780E40B
:103C500090E022E034E061157105D9F081E890E050
:103C600021E833E061307105A1F0E6CF992781307A
:103C7000910599F0009741F08230910589F0039702
:103C8000D9F6ECEEF2E002C0E0E3F3E0849190E0DC
:103C90009F01FA01318320830895E0E2F3E0F6CF3B
:103CA000E2EFF2E0F3CF89E090E026E433E0611543
:103CB000710579F389E090E02FE533E0613071051B
:103CC00041F3BACF82E190E02FE633E0E2CF8BE31D
:103CD00090E024E333E0DDCF80918302843011F45F
:103CE00082E0089581E0089580915E02811102C012
:103CF0000C946C1E089580E189BD82E189BD09B4F0
:103D000000FEFDCF8091D8008F7D8093D8008091F8
:103D1000E00082608093E0008091E00081FDFCCFB4
:103D20000895AF92BF92CF92DF92FF920F931F93AD
:103D3000CF93DF936C01EB018A010E94F01FF82EF4
:103D4000811123C00115110539F0F801808191819D
:103D5000C81BD90BC80ED91EB12CA12C2097A9F0D5
:103D60008091E80085FD22C08091E8008E778093E5
:103D7000E80001151105A1F0F80180819181A80EDC
:103D8000B91EB182A08285E0F82E8F2DDF91CF91F0
:103D90001F910F91FF90DF90CF90BF90AF9008954B
:103DA0000E94F01F8823D1F2F82EEFCFF601819107
:103DB0006F018093F1002197FFEFAF1ABF0ACECFBA
:103DC000FC0180918A0290918B0286179707A0F0E0
:103DD0006115710529F49091E8009E779093E800B1
:103DE00090E06115710551F4911108C08091E800CF
:103DF00082FF34C080E00895BC01F2CF809183023D
:103E00008823C1F18530C1F18091E80083FD30C085
:103E10008091E80082FDEACF8091E80080FFE1CF49
:103E20008091F3002091F200382F6115710519F08F
:103E30002830310558F091E02830310509F090E044
:103E40002091E8002E772093E800CBCF81918093DA
:103E5000F100615071092F5F3F4FE7CF80918302DE
:103E6000882341F0853041F08091E80083FFBECF88
:103E700081E0089582E0089583E00895FC01809137
:103E80008A0290918B0286179707A0F06115710541
:103E900029F48091E8008E778093E80090E0611526
:103EA000710551F4911108C08091E80082FF35C07E
:103EB00080E00895BC01F2CF809183028823C9F18C
:103EC0008530C9F18091E80083FD31C08091E80020
:103ED00082FDEACF8091E80080FFE1CF8091F3007E
:103EE0002091F200382F6115710519F02830310545
:103EF00058F091E02830310509F090E08091E80019
:103F00008E778093E800CBCF84918093F100319637
:103F1000615071092F5F3F4FE6CF80918302882364
:103F200041F0853041F08091E80083FFBDCF81E012
:103F3000089582E0089583E00895982F973028F03F
:103F40008F708093E90081E008959093E900242F19
:103F5000762F50E0981731F07091EC002091ED0031
:103F60005091F00021FD02C09F5FE8CF3091EB003F
:103F70003E7F3093EB003091ED003D7F3093ED00BC
:103F80003091EB0031603093EB007093EC002093A4
:103F9000ED005093F0002091EE0027FDE5CF80E08A
:103FA00008958091840287FF13C08091E80082FF0A
:103FB00006C08091E8008B778093E80004C0809170
:103FC00083028111F2CF0895809183028823D9F36F
:103FD0008091E80080FFF8CF8091E8008E77ECCFE9
:103FE0002091E4003091E50095E6A9012091EC00D4
:103FF000822F817020FF06C08091E80080FF06C0FC
:1040000080E008952091E80022FD1AC0809183028B
:10401000882389F0853089F08091EB0085FD0FC001
:104020002091E4003091E50042175307F9F29150D6
:10403000E1F684E0089582E0089583E0089581E048
:1040400008950E948F200E949720E0EEF0E080818A
:1040500081608083E8EDF0E080818F77808319BCF8
:10406000A7EDB0E08C918E7F8C9380818F7E8083D2
:104070001092820208950F931F93CF93DF930E94B3
:104080008F200E949720C8EDD0E088818F778883A9
:1040900088818068888388818F7D888319BC10928D
:1040A000830210927F02109281021092800200EE31
:1040B00010E0F80180818B7F808388818160888314
:1040C00042E060E080E00E949D1FE1EEF0E0808130
:1040D0008E7F8083E2EEF0E080818160808380814A
:1040E00088608083F80180818E7F808388818061F1
:1040F0008883DF91CF911F910F910895E8EDF0E053
:1041000080818F7E8083E7EDF0E080818160808315
:1041100084E082BF81E0809382020C943B20E8ED32
:10412000F0E080818E7F80831092E20008951092EB
:10413000DA001092E10008951F920F920FB60F92CD
:1041400011242F933F934F935F936F937F938F939C
:104150009F93AF93BF93EF93FF938091E10082FF12
:104160000BC08091E20082FF07C08091E1008B7F4D
:104170008093E1000E9406238091DA0080FF19C03D
:104180008091D80080FF15C08091DA008E7F8093E7
:10419000DA008091D90080FF96C080E189BD82E17C
:1041A00089BD09B400FEFDCF81E0809383020E94A7
:1041B000F71C8091E10080FF19C08091E20080FF30
:1041C00015C08091E2008E7F8093E2008091E20032
:1041D00080618093E2008091D80080628093D80053
:1041E00019BC85E0809383020E94091D8091E10043
:1041F00084FF2BC08091E20084FF27C080E189BD4D
:1042000082E189BD89B5982F917080FFFBCF8091A5
:10421000D8008F7D8093D8008091E1008F7E8093BD
:10422000E1008091E2008F7E8093E2008091E200C5
:1042300081608093E20080917F02882309F449C065
:1042400084E0809383020E940A1D8091E10083FF35
:1042500029C08091E20083FF25C08091E100877F23
:104260008093E10082E08093830210927F0280912C
:10427000E1008E7F8093E1008091E2008E7F809349
:10428000E2008091E20080618093E20042E060E021
:1042900080E00E949D1F8091F00088608093F00074
:1042A0000E94081DFF91EF91BF91AF919F918F9157
:1042B0007F916F915F914F913F912F910F900FBE22
:1042C0000F901F90189519BC109283020E94051D33
:1042D00070CF8091E30087FD93E090938302B3CF8A
:1042E0001F920F920FB60F9211242F933F934F936B
:1042F0005F936F937F938F939F93AF93BF93CF936E
:10430000DF93EF93FF93D091E900DF708091EC0091
:10431000C82FC17080FDC0E81092E9008091F000C4
:10432000877F8093F00078940E94B4211092E90076
:104330008091F00088608093F000CD2BCF70C09307
:10434000E900FF91EF91DF91CF91BF91AF919F91E4
:104350008F917F916F915F914F913F912F910F902E
:104360000FBE0F901F9018951F93CF93DF93CDB77B
:10437000DEB7AA970FB6F894DEBF0FBECDBF84E8B4
:1043800092E02091F100FC012193CF01F2E08C3802
:104390009F07B9F70E94161D8091E80083FF1EC198
:1043A00080918402909185029A3008F017C1E92F1C
:1043B000F0E0EE54FC4D0C943623803899F08238AE
:1043C00009F00CC1809188028F70873008F006C117
:1043D0008093E9008091EB0085FB882780F910929B
:1043E000E90006C080918002909181029111826063
:1043F0009091E800977F9093E8008093F1001092ED
:10440000F1008091E8008E77E5C0882309F4D3C0DD
:10441000823009F0E3C0809186028111D6C080917C
:1044200088028F702FEF280F263008F0D7C08093B6
:10443000E9002091EB0020FFC8C0933031F4809157
:10444000EB0080628093EB00C0C09091EB00906124
:104450009093EB0021E030E001C0220F8A95EAF74B
:104460002093EA001092EA008091EB008860EACF86
:104470008111B4C0109186021F778091E30080788B
:10448000812B8093E3008091E800877F8093E80090
:104490000E94D11F8091E80080FFFCCF8091E30053
:1044A00080688093E30082E0111183E080938302AF
:1044B00095C08058823008F091C08091860290911A
:1044C00087028C3D23E09207A1F583E08A838AE28C
:1044D00089834FB7F894DE01139620E03EE051E265
:1044E000E32FF0E050935700E49120FF03C0E295E2
:1044F000EF703F5FEF708E2F90E0EA30C0F0C7960C
:104500008D939D932F5F243159F74FBF8091E80021
:10451000877F8093E8006AE270E0CE0101960E94F6
:10452000E01E8091E8008B778093E80057C0C0962A
:10453000E7CF6091880270918902AE014F5F5F4FB3
:104540000E940C1EBC01892B09F448C09091E80020
:10455000977F9093E80089819A810E943E1FE1CF66
:104560008038E1F58091E800877F8093E8008091B2
:104570007F028093F10045CF811130C09091860277
:10458000923060F58091E800877F8093E8009093F7
:104590007F020E94D11F80917F02882311F084E066
:1045A00005C08091E30087FDFACF81E0809383020C
:1045B0000E940C1D13C080918602813079F481E045
:1045C000933009F080E0809381021092E90080919D
:1045D000E800877F8093E8000E94D11F8091E80067
:1045E00083FF0AC08091E800877F8093E800809174
:1045F000EB0080628093EB00AA960FB6F894DEBFC2
:104600000FBECDBFDF91CF911F9108950895CF9335
:10461000809183028823A1F0C091E900CF7090912E
:10462000EC00892F817090FD80E8C82B1092E90082
:104630008091E80083FD0E94B421CF70C093E9000F
:10464000CF91089597FB072E16F4009407D077FDBD
:1046500009D00E943C2307FC05D03EF4909581953B
:104660009F4F0895709561957F4F0895EE0FFF1F3E
:104670000590F491E02D0994AA1BBB1B51E107C0E2
:10468000AA1FBB1FA617B70710F0A61BB70B881FE2
:10469000991F5A95A9F780959095BC01CD01089571
:1046A000F999FECF92BD81BDF89A992780B50895FA
:1046B000A8E1B0E042E050E00C948423262FF99961
:1046C000FECF92BD81BDF89A019700B4021639F071
:1046D0001FBA20BD0FB6F894FA9AF99A0FBE089542
:1046E0000396272F0E945F230E945E23252F0E949E
:1046F0005F23242F0C945F230196272F0E945F23B2
:104700000C945E23DC01CB01FC01F999FECF06C0BD
:10471000F2BDE1BDF89A319600B40D92415050407F
:10472000B8F70895F894FFCF2A0D2A0D820D820D57
:10473000E30DFF0D570D570D0A0E960EA50EA50E93
:10474000010F570D570D0A0F7F0F7F0F880F880F2E
:104750008A0F880F880F880F7F0F7F0F8F0F880FAA
:10476000880F8F0FDD210522EE220522EE2238224E
:084770005922EE22B022BC2206
:10477800F6F731333236946697C6343500000000B8
:10478800000001A50100A60106A60135022808645B
:104798003C07144D1CC41C991C951C831C01353402
:1047A800C6976694E200E900EA00B500B600B700D3
:1047B800CD008301CC008A019201940121022302D9
:1047C80024022502260227022A02B300B4006F0041
:1047D8007000818283E200E900EA00B500B600B704
:1047E80000CD008301CC008A0192019401210223AB
:1047F8000224022502260227022A02B300B4006F0F
:10480800007000818283010203040506070809007D
:00000001FF
